:020000022000DC
:1070000000F003206D7302005573020057730200F5
:10701000597302005B7302005D7302000000000000
:107020000000000000000000000000005F7302008C
:1070300061730200000000006373020065730200C8
:1070400067730200677302006773020067730200D0
:1070500067730200677302000DA2030067730200EA
:107060006773020067730200957B03006773020079
:1070700067730200677302006773020067730200A0
:10708000677302005110040019D3020067730200F5
:107090002111040067730200D9AB0300677302007B
:1070A0006773020067730200677302006773020070
:1070B0006773020067730200000000000000000018
:1070C0006773020067730200677302006773020050
:1070D0006773020067730200677302006773020040
:1070E000677302006773020067730200000000000C
:1070F00000000000677302000000000067730200D8
:10710000000000000000000000000000000000007F
:10711000000000000000000000000000000000006F
:10712000000000000000000000000000000000005F
:10713000000000000000000000000000000000004F
:10714000000000000000000000000000000000003F
:10715000000000000000000000000000000000002F
:10716000000000000000000000000000000000001F
:10717000000000000000000000000000000000000F
:1071800000000000000000000000000000000000FF
:1071900000000000000000000000000000000000EF
:1071A00000000000000000000000000000000000DF
:1071B00000000000000000000000000000000000CF
:1071C00000000000000000000000000000000000BF
:1071D00000000000000000000000000000000000AF
:1071E000000000000000000000000000000000009F
:1071F000000000000000000000000000000000008F
:10720000344935480A1A02D0072291438D46334942
:1072100033480A1A06D00722914381F309880222D3
:1072200082F314882F483049304A00F042F8304841
:107230003049314A00F03DF830483149314A00F0D8
:1072400038F831483149324A00F033F83148324990
:10725000324A00F02EF832483249334A00F029F819
:1072600032483349334A00F024F833483349002286
:1072700000F02AF832483349002200F025F832485D
:107280003249091A082902DB0022026041601F48C6
:107290001F49884205D00268043003B4904703BCFC
:1072A000F7E700208646EC4600200021284A904758
:1072B000FEE7884207D0521A05D0037801300B70E0
:1072C0000131013AF9D17047884202D00270013091
:1072D000FAE7704700F0032000E8032000F00320E5
:1072E00000F0032004660400002E0020AC300020D3
:1072F000A0730200A07302009A3A0400046604001E
:10730000002E0020002E0020103F0400103F04003B
:10731000103F0400103F0400103F0400103F040021
:10732000103F0400103F040004660400B06804002D
:10733000AC300020AC300020AC3000207172002056
:107340007472002074720020747200207476002021
:107350005D780200FEE7FEE7FEE7FEE7FEE7FEE7F8
:10736000FEE7FEE7FEE7FEE700F002B8FFF7FCBF2E
:1073700008484FF00701884385460748804707487B
:10738000016841F470010160BFF34F8FBFF36F8F4D
:10739000FFF736BF00F0032091AE030088ED00E058
:1073A00041DF704710B50D200C4601F0E5F9207063
:1073B00010BD00000D4B1B685B0413B50C460ED5C9
:1073C0000B4B1B68032B0ADD0A4B0B4AD3F8043521
:1073D0000191009209498E22042006F089FF21467E
:1073E0000D2002B0BDE8104001F0D8B940300020B7
:1073F0003C300020001001408A3F0400833F04001D
:107400000F4B1B685B0407B50DD50E4B1B68032B98
:1074100009DD0D4B0D4AD3F804350D4900920420C7
:10742000CC2206F065FF19F00BF80322C8210F20CB
:1074300001F018FA03B05DF804EB0AF059BA00BF86
:10744000403000203C30002000100140A23F0400EA
:10745000833F040037B5334D2B68441C58040ED5C8
:10746000314B1B68032B0ADD304B314AD3F804350E
:10747000304900920194E822042006F039FF012CE3
:1074800010D0042C2ED02B685B0449D5264B1B68EA
:10749000032B45DD254B284AD3F8043500924FF4E1
:1074A000857239E02B6859040DD51F4B1B68032BDF
:1074B00009DD1E4B214AD3F804351E4900920420F1
:1074C000F02206F015FF0D2001F056F980F00100C2
:1074D000C1B20D2001F062F9194803B0BDE8304097
:1074E00000F0E6BB0AF002FA40B10BF0C1FC0AF072
:1074F0009BF903B0BDE83040FFF782BF2B685A0408
:107500000ED5094B1B68032B0ADD084B0D4AD3F837
:10751000043500924FF482720649042006F0E8FE1A
:1075200003B030BD403000203C300020001001404E
:10753000BB3F0400833F0400E4410400CE3F04004D
:10754000102E0020DC3F04000378232B01D1FFF72D
:1075500057BF704713B53F4C236858040ED53E4BB8
:107560001B68032B0ADD3D4B3D4AD3F804353D49EA
:107570000092042040F2431206F0BAFE3A4800217D
:1075800000F0C8FB18B1394AB02113F078FD236828
:10759000590410D5304B1B68032B0CDD324A2F4B9E
:1075A0001288D3F804350192314A00922D49B12254
:1075B000042006F09DFE2F48002100F021FC18B1A8
:1075C0002A4AB52113F05BFD23685A0410D5224BDB
:1075D0001B68032B0CDD274A204B1288D3F8043597
:1075E0000192254A00921F49B622042006F080FE2F
:1075F0002248002100F0B8FE18B11C4AB92113F04E
:107600003EFD1F491D4800F0DFFE18B1174ABA21A0
:1076100013F035FD1949144800F0CAFB18B1134A9C
:10762000BB2113F02CFD23685B0410D50A4B1B68AB
:10763000032B0CDD114A094B1288D3F80435019253
:10764000104A00920749BC22042006F051FE02B005
:1076500010BD00BF403000203C3000200010014031
:1076600013400400833F0400102E00202B3F040031
:1076700033400400B03000204F400400082F0020A9
:10768000FC2E00206940040010B5044600210F20A4
:1076900004EB840401F0D0F862003221BDE8104010
:1076A000032001F0DFB801F023B900001FB503A8E3
:1076B0000EF08AFC0C4B1B685B0411D50B4B1B684E
:1076C000032B0DDD0A4BBDF80C20D3F804350192D5
:1076D000084A0092084940F22D12042006F008FEE4
:1076E00005B05DF804FB00BF403000203C300020B6
:1076F0000010014085400400833F0400134B1B68C9
:107700005B0407B50ED5124B1B68032B0ADD114B2A
:10771000114AD3F804351149009204204FF49972AC
:1077200006F0E6FD01F008FC01F02AFCFFF7BEFFC1
:1077300001F0DEF800210F2001F07EF80422C821BC
:107740000F2003B05DF804EB01F08CB8403000204E
:107750003C300020001001409C400400833F0400A6
:107760001FB50B4B1B685B040FD50A4B1B68032B23
:107770000BDD094BD3F80435CDE90112074A00921D
:1077800007499F22042006F0B3FD05B05DF804FB15
:10779000403000203C30002000100140B640040082
:1077A000833F04001FB50B4B1B685B040FD50A4BCE
:1077B0001B68032B0BDD094BD3F80435CDE901120F
:1077C000074A00920749A822042006F091FD05B05F
:1077D0005DF804FB403000203C30002000100140E8
:1077E000DD400400833F040007B53138032804D886
:1077F00003B05DF804EBFFF72DBE0B4B1B685B0479
:107800000ED50A4B1B68032B0ADD094B094AD3F836
:1078100004350949009204204FF48C7206F068FD8B
:1078200003B05DF804FB00BF403000203C30002076
:1078300000100140E4410400833F040008B50378D0
:107840001D2B07D1044800F09BFA18B1BDE8084091
:1078500013F008BC08BD00BF102E002000B5604E1C
:10786000604A4FF410308DB0052106F027FD3368D3
:1078700058040ED55C4B1B68032B0ADD5B4B5C4A3E
:10788000D3F804355B490092042040F26F1206F0F1
:107890002FFD19F099FD20B1574A40F2711113F0F4
:1078A000EEFB01F035F8554801F060F820B1524A7E
:1078B00040F2751113F0E3FB01F014FB01F03CFB07
:1078C00001F05EFB18F07AFD0021202203A81CF0D5
:1078D0005DF84B4B039306238DF81430494B079307
:1078E00049494A4B0B9303A809F0ACFF10B918F0B3
:1078F00085FD08B30B2805D03F4A4FF4B47113F04F
:10790000BEFB19E018F09CFD3368590414D5364DC0
:107910002B68032B10DD354C3D4AD4F8043535492E
:10792000009204204FF4B17206F0E2FC33685A046E
:1079300002D52B68032B45DC3648642100F0BCFEE1
:10794000314B1B78002B48D1334D0FCD03AC0FC406
:1079500095E8070084E8070003A800F051FE20B175
:10796000254A40F2931113F08AFB01F011FC01F05B
:1079700031F82A4804F082FB09F0D8FE20B11E4AF3
:1079800040F29F1113F07BFB33685B040ED5164B5E
:107990001B68032B0ADD154B214AD3F80435154922
:1079A0000092042040F2A11206F0A2FC00210C205B
:1079B00000F042FF0222C8210C2000F053FFFFF725
:1079C000EFFCFCE7174AD4F804350A49009204207A
:1079D00040F2631206F08CFCAEE7FFF767FEC4E7E7
:1079E0004030002091E202003C30002000100140B5
:1079F00004410400833F04002B3F0400557402003F
:107A00000100000749750200AC30002055750200E6
:107A100033410400E9770200C0410400002E002039
:107A2000E4410400814104009C3801F033B90000B6
:107A3000F0B5044685B00F46EC380DF10F011D4638
:107A4000C36B1646984714F8BC1CA4F1A202384632
:107A500018F0E6FB20B10F4A40F20F1113F00FFBB4
:107A600014F8A22C9DF80F309A4211D0A4F19C007A
:107A7000019001F00FF9002304F8803C2D230198B8
:107A800044F8843C44F86C6C44F88C5C01F0F4F8E5
:107A900005B0F0BD2543040008B50346084613F8B9
:107AA000A42C13F8BC1C18F0A7FB30B1BDE80840AB
:107AB000024A4FF4817113F0E2BA08BD2543040075
:107AC000134B1B685B0437B5044615460DD5114BA7
:107AD0001B68032B09DD104B104AD3F804351049FD
:107AE00000920420872206F003FCE36B04F14801B6
:107AF0002046984794F848302B7094F84A306B70C1
:107B000004F1500001F0D4F8686003B030BD00BF4C
:107B1000403000203C300020001001407C43040035
:107B20007043040037B510F8083C10F8061C8B426F
:107B30000446A0F1500506D050F8183C00F8081C87
:107B40000BB12846984714F8083C8DF8003014F81B
:107B5000063C8DF80130694600232846019318F051
:107B6000D7FA54F8103C23B114F8062C216A2846A1
:107B7000984703B030BD0000F0B51D462E4B1B6882
:107B800085B05B040A9F044616460FD52B4B1B6835
:107B9000032B0BDD2A4B1278D3F804350192294AC6
:107BA000009229499A22042006F0A2FB0DF10B0154
:107BB0002046E36B9847317894F8300084F84A10F7
:107BC00018F0FCFA18B1214AA22113F058FA9DF8D6
:107BD0000B3032789A424FF000032AD084F86C3090
:107BE0002D23A366FDB9D4F8F0300395186B836894
:107BF00003AA5B6829469847039B2366C4F8805014
:107C000004F15000256E01F037F8D4F8F00000F0D0
:107C1000EBFB37B194F848303B7094F84A307B70F6
:107C20007D6005B0F0BD6B68C4F880302B682366BA
:107C3000E6E71D46EDE700BF403000203C30002065
:107C400000100140874304007043040025430400F2
:107C500010F8073C37B50446A0F15005DBB910F821
:107C6000063CC3B150F8183C012100F8081C0BB1C8
:107C7000284698470023ADF8023014F8083C8DF8E8
:107C8000003014F8063C8DF801306946236A0193F0
:107C9000284618F03DFA54F8103C3BB114F8062C75
:107CA000216A284603B0BDE83040184703B030BD14
:107CB00037B50446503000F0EDFF2146E36B11F874
:107CC000485F2046984794F8483084F84A308DF849
:107CD00000308DF80130694600232046019318F0EA
:107CE00017FA94F8481094F8300018F067FA20B1A9
:107CF000074A40F2371113F0C2F994F84830AB420A
:107D000003D0D4F8F00000F06FFB03B030BD00BF2B
:107D10002543040010B5044608B90E2010BD144BCD
:107D2000C362C36B002BF8D0836B13B9036C002BB9
:107D3000F3D0204618F0C4F90028EFD104F1300048
:107D400018F07EFA0028E9D10A4BC4F8EC300A4B4F
:107D50002065C4E91530094BE36504F150000123A7
:107D6000C4F8D8006366BDE8104000F0B7BF00BF9C
:107D700098430400A0430400517C0200257B0200CC
:107D800013B504460DF1070190F8300018F028FAF9
:107D900020B1064A40F2731113F071F99DF80710F3
:107DA000204618F0BDF902B010BD00BF2543040005
:107DB00020B119B1C0F8F010002070470E207047B4
:107DC00008B51146007B18F073FD28B1BDE80840E6
:107DD000024A4B2113F053B908BD00BFAC43040065
:107DE00008B511681960007B18F051FD28B1BDE895
:107DF0000840024A562113F042B908BDAC430400C2
:107E000010B5044650B1064B836018F0EBFC30B956
:107E100004F10C00BDE8104018F056BD0E2010BD56
:107E20000444040010B5184B1B685B0486B004467C
:107E300018D5164B1B68042B14DD154B026AD3F8BA
:107E400004350492426A039230F8062C029210F82C
:107E50001C2C01920F4A00920F494FF4C672052064
:107E600006F046FA002324F8083C54F8103C43B1CD
:107E700034F8062C216AA4F1500006B0BDE8104089
:107E8000184706B010BD00BF403000203C30002035
:107E9000001001406344040057440400F8B50A4F41
:107EA00005460E46002495F83C0006EB4402E1B27C
:107EB00019F018F818B13A46622113F0E0F80134CD
:107EC000102CF0D1F8BD00BF0C44040030B51446AE
:107ED00087B0054600B112B9784601F021F90023B8
:107EE0002370B5F848306380B5F84A30A38095F820
:107EF0007C30022B21D12B6F003B18BF01235B424A
:107F0000A360114B1B685B0415D5104B1B68032B3A
:107F100011DD0F4B6A6FD3F804350492A268039207
:107F2000A2880292628801920A4A00920A49E222D9
:107F3000042006F0DDF907B030BD05F1500000F077
:107F4000B7FEA060DDE700BF403000203C300020DD
:107F500000100140A744040057440400F0B5174640
:107F600087B01D46044600B112B9784601F0D8F832
:107F7000398894F83C000DF1170218F0CBFF064643
:107F8000D8B1002D37D1214B1B685B0413D5204B92
:107F90001B68032B0FDD1F4BB4F84820D3F80435C2
:107FA0000292B4F84A2001921B4A00921B49C32254
:107FB000042006F09DF907B0F0BD3B88B4F84820D6
:107FC0009A4203D0B4F84A209A4205D104F15000F5
:107FD00000F060FE0023A36404F1E807D4F8EC305D
:107FE000B342CED957F8040B9DF8171003689B686D
:107FF00098470136F2E700232B70B4F848306B80C5
:10800000291D2046FFF74AFFBDE700BF4030002092
:108010003C30002000100140ED44040057440400AF
:10802000F0B5174687B01D46044600B112B9784630
:1080300001F076F8398894F83C000DF1170218F039
:1080400028FF0646002836D13B88A4F8483004F1C2
:10805000E807D4F8EC30B34224D800263DB12E70A6
:10806000B4F848306B80291D2046FFF717FF134BEB
:108070001B685B0414D5124B1B68032B10DD114BDE
:10808000B4F84820D3F804350392B4F84A200E49D6
:10809000CDE901620D4A00920420982206F028F9E9
:1080A00007B0F0BD57F8040B9DF8171003681B6864
:1080B00098470136CDE70126D0E700BF40300020C9
:1080C0003C300020001001405744040014450400D7
:1080D0000C4B1B685B0407B511D50B4B1B68042BBD
:1080E0000DDD0A4B10F81C2CD3F804350192084A18
:1080F0000092084940F28312052006F0F9F803B017
:108100005DF804FB403000203C30002000100140AE
:10811000464504005744040037B51446054600B1EF
:1081200012B9784600F0FCFF00232370B5F8483000
:108130006380211D2846FFF7B1FE0B4B1B685B04D3
:108140000FD50A4B1B68032B0BDD094B6288D3F854
:1081500004350192074A00920749F822042006F0EC
:10816000C7F803B030BD00BF403000203C300020D5
:108170000010014062450400574404002DE9F0431B
:108180008BB01646DDF848801F46044600B112B990
:10819000784600F0C5FF3188B4F848308B4251D0A2
:1081A00094F83C000DF11B0218F096FE05460028DD
:1081B00057D1CDE908007FB9236B9B685B6813B981
:1081C000784600F0ADFF206B836807AA5B6800214A
:1081D0009847079B089308AF002384F86C3001216F
:1081E0002D23C4E919137B68C4F880303B682366EB
:1081F0003388A4F84A3004F1E807D4F8EC30AB42F5
:1082000022D82F4B1B685A0418D52E4B1B68042B01
:1082100014DD2D4B226ED3F804350492D4F880205F
:1082200003929DF81B20029232880192274A009205
:10823000274940F22B12052006F05AF804F15000AD
:1082400000F01AFD00220DE057F8040BD4F880204E
:1082500003689DF81B10D3F80490236EC8470135BE
:10826000CBE70222B8F1000F0CD088F80020B4F858
:108270004830A8F80230B4F84A30A8F80430236E29
:10828000C8F808300E4B1B685B0415D50D4B1B68F6
:10829000032B11DD0C4BB4F84A10D3F804350391CD
:1082A000B4F84810CDE901210A4A009208494FF478
:1082B0009F72042006F01CF80BB0BDE8F08300BFED
:1082C000403000203C300020001001408545040073
:1082D00057440400BD450400002310B530F8062CB7
:1082E00020F8063C1B4B20F8082C1B685B0488B068
:1082F000044612D5184B1B68042B0EDD174B18498A
:10830000D3F80435029210F81C2C0192154A009201
:1083100005204FF4D27205F0EBFF54F8103C2BB15E
:1083200034F8062C216AA4F15000984700228DF8F9
:10833000142034F8082C236AADF8162005A934F867
:10834000062CADF81820A4F14C00079318F0D0FCCF
:1083500008B010BD403000203C300020001001402B
:1083600057440400F045040013B50446019100B3DE
:10837000036CF3B13C3018F0E3FDC0B90E4B01992A
:10838000A363204618F0BEFC88B90C4B23650C4B48
:10839000A4F84800C4E915300A4BE36504F1500025
:1083A000C4F8D80000F09AFC08B9C4F8EC0002B098
:1083B00010BD0E20FBE700BF28460400D18002005C
:1083C000257E0200D982020050B149B1D0F8EC30CC
:1083D00043B90122C0F8E810C0F8EC2018467047F5
:1083E0000E23FBE70423F9E70023A0F84830704789
:1083F00069DF704703781F2B02BF024B01221A70FE
:10840000704700BF0B31002030B5324D2A7887B05D
:108410001AB1012803D0032852D007B030BD002480
:1084200001A9019412F098FA08B112F01BFE40F273
:108430001113CDE90344019AADF80C3003A91023C0
:108440004120ADF81440ADF81630FFF7D1FF08B168
:1084500012F008FE01A812F0D1FA08B112F002FEE3
:108460001D4C236803B19847012302A90DF10200B6
:1084700002930EF0BDF908B112F0F4FDBDF8020050
:108480000DF0B6FE0DF101010DF0D4FF08B112F0B0
:10849000E9FD0AF08DF99DF8011000200AF022FD97
:1084A00010B1784600F03CFE03F088FD08B112F0F0
:1084B000D9FD00232B706368002BAED09847ACE742
:1084C00012F008FB0028A8D007B0BDE8304012F039
:1084D000C9BD00BF0A3100200C31002008B5037867
:1084E0001C2B0CD1064B1B784BB112F031FB08B1A1
:1084F00012F0B8FDBDE80840024803F0C1BD08BD58
:108500000A310020F82F0020094B1B7810B56BB9F9
:108510000849094813F04CF948B908490246BDE832
:10852000104049690648032313F05BB9082010BDC9
:108530000B31002028310020943400200C31002021
:108540006033002010B50378023B082B4AD8DFE8DF
:1085500003F01E051249493849493F00224B9B68E8
:10856000002B3FD0007A00283CD0204A0121BDE8F2
:108570001040117018471C4BDB68002B32D01B4A8F
:10858000117879B30021BDE8104011701847184BDD
:108590001A784AB9144B1B6913B114490A709847E9
:1085A000BDE81040FFF7B0BF124B134801221A700C
:1085B00003F064FD03F04AFDA0B1BDE8104012F0E5
:1085C00051BD094B0D489969102213F05AF9F3E790
:1085D000D0E9021009F0BAF808B112F043FD044BDB
:1085E00001221A7010BD00BF0C310020083100209C
:1085F000093100200A310020F82F002060330020CC
:1086000070B51D4A1D4E5168044686B0106803AB14
:1086100003C31189927A19809A700FCC35460FC521
:1086200094E8070085E80700B3691BB3144B009377
:10863000144A1549154803AB13F086F8C0B914481D
:1086400014F0FEFB0146114813F09EF880B9114862
:1086500014F050FD60B90F4814F082FD01460B483C
:1086600013F092F820B90C4803F008FDFFF74CFF17
:1086700006B070BD0720FBE73C4604000C3100202B
:10868000458502002831002094340020603300200A
:1086900048310020103300200430002010B5054C74
:1086A000236833B110F0E4FA002802DB236898470E
:1086B000F8E710BDD4340020144B154A10B50C4611
:1086C00018600121134818F0DFFE18B1124A4A2140
:1086D00012F0D5FC41F27073E003610C984271F125
:1086E000000310D34FF47A7200231AF0E7FF01461B
:1086F0000A48002218F0DAFE38B1BDE81040064AF8
:108700004B2112F0BCBC0521F2E710BDD43400208F
:108710009D860200A046040047460400D83400208D
:108720002DE9F843104FDFF84880DFF84890054600
:10873000002417F8013BAB4210D1D8F8006003F0D9
:1087400069FF331A48BF831B4B4507D903F062FF0B
:10875000064BC8F800001B68204698470134042CDB
:10876000E7D1BDE8F88300BFAC4604002035002007
:1087700024350020801A06001F288ABF064B4FF0C0
:10878000A04300F01F00D3F8043523FA00F0C043E3
:1087900000F00100704700BF0003005009B111F064
:1087A0005ABC11F04BBC00002DE9F8431D4D286860
:1087B00008B912F057FC1C4EDFF878903768002497
:1087C0004FF0010808FA04F33B420AD014F80920DC
:1087D0001046FFF7D1FF80F00100C1B21046FFF74D
:1087E000DDFF0134042CEDD12C68013C2C60B4B9C0
:1087F0000E480F4FDFF83C8018F0A4FE01253268C8
:1088000005FA04F3134207D0396818F80400E14070
:1088100001F00101FFF7C2FF0134042CEFD1BDE8E4
:10882000F88300BFF8340020FC340020003500201D
:1088300028350020B04604002DE9F041084F0546D8
:1088400088460024012606FA04F32B4203D0385D43
:108850004146FFF7A3FF0134042CF4D1BDE8F081B9
:10886000B04604002DE9F04105460C46A2B3132999
:1088700032D91A4E1A4BDFF8748030605200013A38
:1088800000211A6001270A4607FA02F32B4205D09D
:1088900018F80200FFF770FF904001430132042AEC
:1088A000F2D1104B002519604FF400474FF4FA70D5
:1088B00029464FF47A720023E4FB07011AF0FEFE0A
:1088C0002A460146084818F0F1FD28B93068012110
:1088D000BDE8F041FFF7B0BFBDE8F081FC340020F7
:1088E000F83400202835002000350020B046040070
:1088F00008B5054818F026FE044B00211868BDE8AD
:108900000840FFF799BF00BF00350020FC3400206D
:1089100037B511F019FB20B911F0D2FA08B112F0F5
:10892000A1FB002401230E4DADF804408DF8064054
:108930008DF8053015F8010B01A911F00FFB08B1F6
:1089400012F090FB0134042CF4D1064A06480121B0
:1089500018F09AFD08B112F085FB03B030BD00BFDE
:10896000B0460400A9870200A8460400F7B538B352
:10897000144B186011F0E8FA20B911F0A1FA08B10F
:1089800012F070FB104B114E1A88114F9B78ADF806
:1089900004208DF80630002416F8015B3A4601A940
:1089A000284611F065FB08B112F05CFB0121284656
:1089B000013411F0DDFB042CEED1002003B0F0BD3A
:1089C0000E20FBE720350020A4460400AC4604003E
:1089D00021870200F0B50446CFB038B12D4E336880
:1089E0005A0403D52C4F3B68032B01DC4FB0F0BD7C
:1089F0002A4B1D680DAB411E00F10F0C184611F8F3
:108A0000012F4FEA121E02F00F0215F80EE083F854
:108A100000E0AA5C5A70614503F10203EFD1002324
:108A20001F4D80F820301F4AD5F8043501921E4AA8
:108A3000029000921D494222042005F059FC33683F
:108A40005B04D3D53B68032BD0DDE27B2168D5F8EE
:108A500004350B92A27B0A92627B0992227B0892D8
:108A6000E27A0792A27A0692627A0592227A0492B8
:108A7000E28852BA92B20392A28852BA09BA92B26A
:108A8000CDE901120A4A009208494322042005F068
:108A90002FFCABE7403000203C3000204430002069
:108AA000001001401047040022470400FF46040064
:108AB0002A470400024B53F820300846184700BFED
:108AC0006C470400024B53F820300846184700BF9B
:108AD00084470400836803B118477047006B00386F
:108AE00018BF012070470369013B033304D8406974
:108AF000003818BF0120704700207047024601214E
:108B00008C3008F00DB80A4600230B6302F18C008C
:108B1000022108F005B838B590F82C30022B044635
:108B200015D0383017F08BFD4FF47A75A0FB053265
:108B300005FB0121DB0B226A43EA414393424FEAE2
:108B4000D13171F100032CBF0120002038BD00207D
:108B5000FCE710B50023044603630362703003F0A2
:108B60000FFD04F13800BDE8104017F0A2BD10B5AC
:108B70000446383017F09DFD00232362E3681BB1E3
:108B80002046BDE81040184710BD00F1100330B476
:108B9000044600F120050FCB85E80F00204630BCCD
:108BA000FFF7E5BFFFF7E3BF73B500F138060446F2
:108BB000304617F07EFD04F110030FCB04F12005C1
:108BC00085E80F00636A83EAE372A2EBE37223B9DC
:108BD0000192784600F0A4FA019A216A4FF47A755E
:108BE000D317A1FB05011AF069FDA36AA3FB0535A4
:108BF000834275EB01023CBF03460D46B3F57A7F15
:108C000075F100021BD31048104AED0345EA5345A5
:108C1000DB03181845F1000100231AF04FFD012372
:108C2000C4E9100184F83830304617F01AFD48B90D
:108C300063683BB1204602B0BDE870401847212070
:108C40000021ECE702B070BD20A1070040420F00F8
:108C500010B5044603F0DEFC236B4FF47A7101FB80
:108C6000030104F1700003F0A3FC23681BB120464C
:108C7000BDE81040184710BD10B5044610B978463D
:108C800000F04EFA224604F18C000021BDE81040AD
:108C900007F046BF10B5044610B9784600F040FA18
:108CA000224604F18C000321BDE8104007F038BFD4
:108CB00038B5044610B9784600F032FA04F13800AD
:108CC000256A17F0BCFC4FF47A72A0FB020302FB8A
:108CD0000131C00B40EA4140281A38BD38B504467E
:108CE00010B9784600F01CFA094BA367094BE364FE
:108CF000C4F88040A46404F1380017F0F1FC064980
:108D0000054604F18C0007F0DCFE284638BD00BFA4
:108D1000078B0200FD8A0200BC47040072DF704727
:108D200073DF704774DF70472DE9F0470F46304915
:108D3000304D0B78304C064630489046C3EB43121A
:108D4000154401330244A2B04FF0000A03F00103BE
:108D5000A2601F220B70C4F804A0C4F80CA0A2806B
:108D6000A28151463C2204A825601AF00FFE06237A
:108D700001AA8DF813300E9201233C22514604F1D2
:108D8000040913A88DF80230ADF820308DF83C307E
:108D9000ADF80060CDF824D0ADF80460ADF80880DF
:108DA00003971AF0F3FD02234A46294604A88DF8DA
:108DB0004C3011F09DFB08B112F054F9104AA16833
:108DC00013A811F095FB08B112F04CF90D4A0A49AD
:108DD0000D48FFF7A3FF082804D107490A480022DD
:108DE000FFF79CFF08B112F03DF922B0BDE8F08713
:108DF0002C3500202D3500206C3500207C350020DE
:108E0000783500201430002010300020B0F5202FDD
:108E10000AD20A23B0FBF3F310B1012B38BF0123B0
:108E2000034A9381916070474FF6FF73F5E700BFE7
:108E30001430002008B5064B01211878FFF770FFA9
:108E400008B112F00FF9BDE80840002003F092BF0E
:108E50001030002008B5054B1878FFF763FF18B1F4
:108E6000BDE8084012F0FEB808BD00BF1030002079
:108E700076DF70477ADF70477CDF704769DF7047C5
:108E800012F0F0B803F0FEB807B503784BB940888C
:108E90003B21FFF7EDFFC0B103B05DF804EB12F02A
:108EA000E1B8012B11D10A4B1B685B040DD5094BAE
:108EB0001B68032B09DD084B084AD3F80435084921
:108EC00000920420682205F013FA03B05DF804FB59
:108ED000403000203C3000200010014030480400A9
:108EE000174804001FB511F0F5FD08B112F0BAF8EB
:108EF000002469460120009411F02EFD08B112F003
:108F0000B1F840F21113CDE90144009AADF80430F4
:108F100001A910234120ADF80C40ADF80E30FFF749
:108F2000ADFF08B112F09EF8684611F067FD08B178
:108F300012F098F804B010BD1FB511230F498DF839
:108F40000430102201A8FFF797FF08B112F08AF849
:108F50000023ADF80C307823ADF80830C823ADF805
:108F60000A3002A84FF4C873ADF80E30FFF782FF45
:108F700008B112F077F805B05DF804FB5C48040016
:108F800000B58BB078220023ADF80420C822CDE9CB
:108F90000633ADF80830ADF8062001AB4FF4C872C7
:108FA000ADF80A20039340F6CD424FF48033CDE96B
:108FB000042303238DF81830064B089303A8064BAF
:108FC000099311F00BFF08B112F04CF80BB05DF8EB
:108FD00004FB00BF898E0200818E020006207047CC
:108FE00030B5454B44F201051B68A84287B00446E2
:108FF00003F4804365D017D801282ED041F2010038
:1090000084424DD0002B38D03C4B1B68002B34DD04
:109010003B4B3C4AD3F80435019100923A497B22FC
:10902000012005F065F928E044F202008442E9D10C
:109030001BB3324B1B68002B1FDD314B1068D3F87C
:10904000043503905268CDE90112304A00922E494E
:109050006922012005F04CF90FE073B1274B1B6822
:10906000002B0ADD264BD3F80435CDE90112284A3E
:1090700025490092602205F03BF94FF0A0434FF4E0
:10908000F032C3F81825C3F80C25EFF3108372B63D
:109090004DF6AD6C1F4A1378002B2AD107B030BDB6
:1090A000002BEAD0154B1B68002BE6DD144BD3F8E0
:1090B0000435CDE90112184A0092134963220120B8
:1090C000D9E7002BD9D00D4B1B68002BD5DD0C4BFD
:1090D0001068D3F8043504905068CDE90210926806
:1090E00001920E4A009208497322012005F000F90E
:1090F000C3E730BFCFE700BF403000203C30002046
:109100000010014045490400B84804000549040026
:10911000C94804002C300020E3480400244904001E
:1091200007B50023014600936A46044B019344F2BD
:109130000200FFF755FF03B05DF804FB8F4C0400FD
:10914000044B00F1100250F8041B43F8041B90423A
:10915000F9D17047BA35002010B54FF0805202F1B6
:10916000600403CC094BA4325960186003CA9A7991
:10917000986002F00F0242F040029A711A7AD960A8
:1091800002F03F0262F07F021A7210BDBA35002071
:1091900000487047BA3500200022064913460132C4
:1091A000202A4B804B6001F8083BF8D1024A13603B
:1091B000704700BFCC350020CC3600200C4BF0B5FA
:1091C0001B680C4D044620227BB1013B15F833008F
:1091D00050B105EBC3067788A74202D176688E426C
:1091E00002D0013AF0D11046F0BD1F23EEE700BFD8
:1091F000CC360020CC350020094A30B51368094C24
:1092000004EBC3051F2B69604FF0010104F8331014
:10921000194408BF0023688014BF1160136030BD7B
:10922000CC360020CC350020C0F30C038B42084420
:1092300038BFA0F50050C01A7047C27D0B7830B51A
:109240002AB3C27823F07F0302F07F0213430B702E
:109250000B78027803F07F0343EAC2130B70AAB1C4
:109260008378C588083B5C425C41C5F3861343EABA
:10927000C4134B70047AC4F3C10242EA85028A70B7
:10928000437A03F01F0343EA4413CB7030BDC27826
:1092900023F0400343EA8213027923F03F0302F0F4
:1092A0003F02D3E70D4B0E4AF0B51E6800218E42F7
:1092B00011D05568002309E0146804EBC30714F8C3
:1092C0003340844201D17868F0BD01339D42F3D12F
:1092D00001310832EBE70020F6E700BF54370020E9
:1092E0005837002000B58DB048B9991C07D001212E
:1092F00001A8CDE902328DF8041001F0A1F9034B69
:1093000018680DB05DF804EB03F02CBF683700203F
:10931000037810B5044613B97846FFF701FF607A69
:10932000431C01209840013810BD2DE9F0410E4644
:109330008EB015461C46074610B97846FFF7F0FE7A
:1093400016B97846FFF7ECFE636AA27802330593FC
:10935000E378A2F10800002B14BF012102210DF1D6
:10936000040842424241434604F10C0004F045F82F
:10937000A3788DF83430237BADF82050022B16FAF9
:1093800085F5CDE906870B960C950FD1236913B9A6
:109390007846FFF7C5FE23690993102305A8ADF8A9
:1093A000283004F026F80EB0BDE8F0810023F5E780
:1093B0002DE9F04F824689B00D4609B100220A60BE
:1093C0000AF10C039AF85040019301274FF0000B6B
:1093D0009AF80900A04203D2002009B0BDE8F08F3E
:1093E000DAF84C1007FA04F20A4264D19AF817200E
:1093F000019B8AF80840002A0CBF0C2608268442EC
:109400009AF80020029306FB04F908BFBAF84A60F4
:109410008DF818B008BFA6EB0906002A14BF4FF05C
:1094200004084FF0010806EB08020492DAF828203D
:10943000039202A8DAF82C20059204F07AF90028A9
:10944000CBD1079A904454B99AF853203AB9DAF834
:1094500018208AF85370C2F30C02AAF806209AF872
:1094600017209AB99AF8522082B914B17846FFF7BA
:1094700057FEBAF84A109AF802208A1ADAF86C10E5
:1094800053460846FFF751FF8AF852700799504635
:10949000FFF7D3FEDAF86C103246494440461AF022
:1094A0004CFA02A804F066F915B12A6801322A6064
:1094B000621C8AF850200134E4B289E710B50446F2
:1094C000808A02F047FC01281CD1237BD3B194F998
:1094D0001620002A18DBE27D5AB1022B12D094F933
:1094E0000330002B10DBA378002B0CBF00200720DB
:1094F00010BDE2780AB9012B06D1237833B9A378DD
:10950000042BF2E71020F3E70720F1E70020EFE754
:10951000B2F5C07F2DE9F84F83468A46904602D9BE
:109520007846FFF7FDFD284B0027994693F84860E1
:109530005EB9404608F0DBF8702404FB0794E0664F
:1095400048B900242046BDE8F88F0137042F03F105
:109550007003EBD1F5E7DC46BCE80F0025460FC5EC
:10956000BCE80F000FC59CE80F00BAF1010F85E8B9
:109570000F00E664A4F84A801BD1144BA4F8526093
:109580001B7D84F8513084F85060DBF82830636527
:109590006FF00103A3620E4BA4F85860A363246428
:1095A000012002F00BF9702303FB079787F848A00E
:1095B000C8E76FF00103A362064BA36584F86860F7
:1095C000054B2466EAE700BF843700206C37002093
:1095D00029970200A1A002002197020010B50446BD
:1095E000C06E08F086F804F1300002F0C9FF94F86C
:1095F0004830022B03D104F1500002F0C1FF204695
:10960000702200211AF0C2F9BDE81040002002F0DB
:10961000D5B810B590F84830012B8CB0044602D074
:109620007846FFF77DFD01238DF80430636D0293CA
:1096300002F0F0FF039001A801F002F82046FFF7C6
:10964000CDFF0CB010BD0000F0B50D4691B0044642
:1096500010B97846FFF764FD94F84830022B1CD10E
:1096600063789A0744D4E188A069FFF7DDFDE369D8
:109670002449A78A1A0A1B0618180B6803F1010669
:109680000E60214903F007034FEA031642F100027E
:1096900001EB0313C3E902028F532C22002105A81A
:1096A000666D1AF073F9102305A88DF8143006962C
:1096B0008DF81C5000F0C4FF2046FFF78FFF134BBE
:1096C0001B685B0712D5124B1B68032B0EDD114B79
:1096D0001149D3F80435029594F8482001920F4AB5
:1096E0000092042040F2F31204F002FE11B0F0BD2B
:1096F000E188A08A002219F051FA94F84830022B30
:10970000CBD1B0E750370020D036002040300020C9
:109710003C30002000100140A3490400AF49040080
:1097200008460021FFF790BF10B591F84830012B93
:109730000C4602D07846FFF7F3FC94F851305BB149
:10974000013B84F85130002384F85030084BBDE8C9
:109750001040186803F006BD217B0129204603D183
:10976000BDE81040FFF770BFBDE81040FFF751BFE4
:10977000683700201FB500230A468DF80F30E0B18E
:10978000023008600DF10F01104603F034FE9DF821
:109790000F3093B10B4B1B685B070ED50A4B1B6850
:1097A000032B0ADD094B0A4AD3F804350949009214
:1097B000042040F2154204F09BFD9DF80F0005B017
:1097C0005DF804FB403000203C30002000100140D8
:1097D000D2490400A349040070B50446D4E9061236
:1097E0002378808A8CB0E3B1E38805F053FE054608
:1097F000A0B12C22002101A8A68AE4691AF0C6F8BB
:109800000F238DF804304FF0000364F3000301A828
:10981000ADF808608DF80A3000F012FF28460CB051
:1098200070BD05F033FEE2E72DE9F0479946137865
:10983000D2F818A0F4B006460D46144623B1D188DC
:109840005046FFF7F1FC9061E378A278002BA2F17B
:10985000080005AF14BF0121022104F10C084242A7
:109860003B464241404603F0C8FDA3788DF84430A2
:10987000ADB2E81A002380B2ADF83830E378C4F80E
:1098800018A0CDE90A76064414AFADF83000109662
:109890000F97002B6ED04FF0100A03AE237B022BE4
:1098A00004BF23690D934FF00003C6E9003308BFDE
:1098B000ADF838A06362206A217904AB32460DF01E
:1098C000A1FA3068002838D009A9FFF753FF78BB08
:1098D000706878B309A9FFF74DFF58B3012356F814
:1098E000233063622046FFF777FFF0B9A1788DF847
:1098F00024006D1A0D9098E80300A38AADF8323069
:1099000001220EAB0A97ADF82C508DF8302083E879
:109910000300A37D8DF84830236A109309A8636A79
:109920001193CDF84C9000F08BFE74B0BDE8F08739
:109930000023D4E73368002BBDD1237B022B05D154
:10994000E08941460DF04EFB0028A7D1184B1B685B
:109950005B07EAD5174B1B68052BE6DD164B174A4C
:10996000D3F8043516490092062040F2037204F041
:10997000BFFCDAE7227B012AE8D12646E089B4F869
:1099800014A046F8243F31460DF0B0FA606A09A9E8
:10999000FFF7F0FE0028A5D16062314650460DF079
:1099A000A5FA606A09A9FFF7E5FE0028CED099E77D
:1099B000403000203C30002000100140E549040008
:1099C000A349040038B590F84830012B044602D072
:1099D0007846FFF7A5FB02F01DFE237B074A012B0B
:1099E00005BFD2E90335A17DD16805FB01310144F2
:1099F00004F13000BDE8384002F0DABD6C370020D9
:109A0000F0B5C37D16468278002B324414BF4FF464
:109A100080734FF4C0739342C7B00F4669D3394B7C
:109A2000042593F84810012907D19C8A818A8C4229
:109A300003D1DC89C1898C425DD0013D03F1700303
:109A4000EFD10121FFF764FD0446002855D03246CE
:109A50003946C06E19F071FF04A920460495FFF73E
:109A6000A7FC30F0040506463ED1049B13B1204606
:109A7000FFF7A8FF244B1B6813F004033FD0234BD0
:109A80001B68032B1EDDB4F84A00214B802805AA71
:109A90001F6828BF802000231646834202F102027D
:109AA00013D1002206F813201A4B1B4AD3F80435B1
:109AB00001921A4A00921A4902964FF4AC620420AD
:109AC00004F016FC284647B0F0BDE16EC95C4FEAD1
:109AD000111C01F00F0117F80CC002F802CC795CE0
:109AE00002F8011C0133D8E72046FFF777FD354621
:109AF000E8E70925E6E70825E4E70425E2E71D464F
:109B0000E0E700BF84370020403000203C300020D8
:109B100044300020001001400E4A04002247040097
:109B2000A34904002DE9F04192F801C01CF0010F97
:109B30008EB005460E4614461F4662D092F817C0F6
:109B4000BCF1000F00F0B2801046FFF745FE002880
:109B500057D194F80380B8F1000F40F08780062EAB
:109B60004FD12F786B78544AB90101F4FE5141EA84
:109B70009301134692F84860012E2AD1B2F814C01E
:109B8000E689B44525D1D6888E4222D1B2F858C094
:109B9000A68ABCF1000F01D0B4451AD117F0800F8E
:109BA000D5F802104FF070022ED002FB0032A2F85E
:109BB0005860702404FB003409BAE56C0D43E56479
:109BC00000293CD1032120460EB0BDE8F041FFF74B
:109BD0003BBD0130042802F17002CBD1374B1B682A
:109BE0005B070ED5364B1B68012B0ADD354B364A19
:109BF000D3F8043535490092022040F2796204F02E
:109C000077FB0EB0BDE8F08102FB0032D289B24290
:109C1000CFD02A4B1B685907F3D5294B1B68012B62
:109C2000EFDD284B2949D3F80435CDE90126284A30
:109C30000092022040F27D6204F05AFBE1E72046E8
:109C4000FFF766FB854205D120460EB0BDE8F04126
:109C5000FFF7DFBC002184F850102046FFF7A8FB77
:109C600020460EB0BDE8F041FFF7ACBE4046FFF71E
:109C700019FB02460028C4D0D4E90301236A0B93E0
:109C8000A38AADF8223009AB83E80300A37D8DF8E9
:109C9000303023788DF82030E36A8DF81480CDE9D8
:109CA00006560D93394605A89047AAE70EB0BDE8C1
:109CB000F041FFF7B9BD00BF8437002040300020DD
:109CC0003C300020001001401C4A0400A34904005D
:109CD0004A4A0400F0B589B004460E460192FFF7E7
:109CE000EDFB0546002832D12378019A33B1314685
:109CF000204609B0BDE8F040FFF782BEE17DA378C1
:109D000001920029134414BF0B210F218B4227D845
:109D10000133049304F10C030293A36A03938DF8B7
:109D20001800E36A059302A803F003FD054670B925
:109D300007992046FFF781FAE37D019A4F1C4BB14A
:109D40003146384619F0F9FD02A803F013FD284604
:109D500009B0F0BD234639463046FFF7E6FAF3E78F
:109D60000925F4E710B54FF4E0720021134819F00B
:109D70000DFE002405F05CFB114B12481C602146CF
:109D8000802219F003FE104B1049114A11489C75AE
:109D9000C3E9001210494CF25032C3E902211A61A2
:109DA00040F604029A8203F0BFF90C4B18600C4B8A
:109DB0000C481C60BDE8104005F03ABD8437002017
:109DC00050370020D03600206C3700208096980055
:109DD000F049020069A5020020A1070068370020B1
:109DE00054370020E592020005F042BB30B504462E
:109DF0008DB000286CD00369002B69D0C369002B9B
:109E000066D08569002D63D05A788DF804201A78C1
:109E10000993838A82F001020B2B8DF80320027BC9
:109E200009D90121022A8DF8001001D1294A927D19
:109E30005AB904220AE0C17A0029F2D1012A0CBFE2
:109E4000012200228DF800203ED1082213448DF813
:109E500002200B330C22B3FBF2F3013B8DF80930E7
:109E600000238DF8083094E8030000238DF81730A4
:109E700003AB83E803002389ADF81430A37A8DF88F
:109E80001630236A0A932046DF2308950B930DF0C2
:109E900045FA28B12378012B14BFFF2320230B930D
:109EA000684618F027FE40B19DF80C30012B16BF14
:109EB0000B9B202343F020030B93A28A2169684661
:109EC000FFF708FF0DB030BD04238DF80230CAE75C
:109ED0000E20F7E76C37002030B50A4691B00446F3
:109EE00000285BD04368002B58D08569002D55D0E1
:109EF00003788DF8133000230D9383680B2B94BFE8
:109F0000017B012101F001008DF8100000208DF887
:109F1000120031B10733DB08013B8DF819308DF8A1
:109F20001800D4E9040101238DF8273007AB83E83A
:109F30000300E389ADF82430237F8DF82630236AAF
:109F40000C9504A8CDE90E2318F0D4FD40B19DF87E
:109F50001C30012B16BF0F9B202343F020030F93CF
:109F60000F4B1B685B0712D50E4B1B68062B0EDDD3
:109F70000D4BA269D3F804350292227801920B4A64
:109F800000920B4940F60502072004F0B1F9D4E92C
:109F9000011204A8FFF79EFE11B030BD0E20FBE7B2
:109FA000403000203C300020001001408B4A04006B
:109FB000A349040030B5037B012B91B004460D4644
:109FC0005FD1314B1B685B070ED5304B1B68032BF1
:109FD0000ADD2F4B2F4AD3F804352F490092042075
:109FE00040F2632204F084F9E3888DF8155099005B
:109FF0008DF81110290E8DF81210290C8DF8131000
:10A00000290A8DF814106178002202290CBF012161
:10A010001146C3F3861343EAC1138DF810304FF095
:10A02000060309934FF001038DF82C30A38AADF895
:10A030002E3004AB0893236A0D93E36ACDF8162003
:10A040008DF81A200C928DF81C208DF828200F9383
:10A0500015D10DF10E0103A80DF052F8BDF80C302A
:10A06000ADF82A30A37D0BB10C4B5B7D8DF83830F9
:10A070006FF0010107A8FFF72FFF11B030BDE38992
:10A08000EEE70020F9E700BF403000203C30002020
:10A0900000100140B64A0400A34904006C370020B8
:10A0A00010B591F84830022B0C4602D07846FFF7E5
:10A0B00037F8022384F8683094F84830022B06D130
:10A0C000E16C2046FFF776FF08B984F8680010BD00
:10A0D0002DE9F04788469CB014469946064600286C
:10A0E00000F03482002A00F0318221B90925284687
:10A0F0001CB0BDE8F087134613AD02F118071868CD
:10A1000059682A4603C20833BB421546F7D10023DB
:10A1100096F900108DF84130337800294FEAD312B8
:10A120008DF8402025DAB8F1030FDFD904229DF81D
:10A13000570000B303F07F038DF8433000239942AA
:10A140008DF8423030DA7278B378920102F4FE5220
:10A1500042EA9302ADF84620DB00F27803F01803E0
:10A1600043EA521302F01F028DF848308DF849205F
:10A170001AE00122DBE7C3F38010002903F03F035C
:10A180008DF843008DF8443008DA96F90130002B41
:10A19000B4BF082304238DF84230D4E704231A44C3
:10A1A00090458DF84230A1D30023199399F80030DF
:10A1B000032B02D97846FEF7B3FF99F80020AA4B8B
:10A1C00010A853F822301B93FFF778F9002840F0CD
:10A1D000BF8110A818F08EFC28B19DF8413043F0E3
:10A1E00002038DF841300023608803A9CDE90333D1
:10A1F0000CF0F8FE28B19DF8413043F001038DF8D2
:10A200004130D4E90312208905F07EF920B99DF888
:10A21000413053B900256AE79DF8413003F0FE0351
:10A220008DF84130002BF2D1F4E7DD0744BF049AEA
:10A2300014929DF84020002A00F07781BDF8461066
:10A240001698FEF7F1FF179BBDF854104FEA132A3A
:10A250001B061F18854B4AF1000A08251A888A42F6
:10A2600005D1D3E90202924508BF8742D2D0013D11
:10A2700003F11003F2D17E4B2A461C4693F84800A6
:10A28000022818D1988A884215D1702000FB024418
:10A29000E188A069FEF7C8FFE269130A12061018E8
:10A2A00043F10003B84273EB0A022AD2052120468B
:10A2B000FFF7CAF904E00132042A03F17003DDD18B
:10A2C000BDF84630BDF85400DDE9161205F044F93A
:10A2D0000346BDF85400002B00F0B980DDE91612EA
:10A2E000BDF8463005F068F9002893D010A8FFF7B4
:10A2F0000FF8014610A8FFF75DFE10A8FFF76CFAF3
:10A30000F5E687427AEB030384D35A4B1B685B075D
:10A3100011D5594B1B68032B0DDD584B9DF8482078
:10A32000D3F804350192564A0092564940F2A332BE
:10A33000042003F0DDFF94F84830022B02D0784669
:10A34000FEF7EEFE504D2F6802F064F9391804F163
:10A35000300002F02DF9237B012B18D194F86830DE
:10A36000ABB994F84830022B02D07846FEF7D8FEFD
:10A37000697DD5E9015303FB015502F04BF9411901
:10A3800004F1500002F014F9012384F868309DF8BC
:10A390004810E36C01228A4013EA02057FF43AAFC9
:10A3A0001343E3649DF85730627A002B14BF4FF0DB
:10A3B000080E4FF00C0E8A42A8F1040A0EFB01FEB3
:10A3C00040F0A7800EEB0A03A4F84A30A269169B5E
:10A3D0009A420AD20DF14C0CBCE80F0004F10C07B4
:10A3E0000FC79CE8030087E80300E06E5246311D6A
:10A3F000704419F0A2FA9DF84130980706D5012360
:10A4000010AA5FFA88F1304618F0E2FA2046E66CAE
:10A41000FEF77EFF86427FF4FDAEE16C2046FFF73B
:10A42000C9FD9DF84130990706D5BDF84610BDF825
:10A430005400012218F0B2FBE06EB4F84A104B460B
:10A440002246FFF76FFB2046FFF7C8F84FE63A4673
:10A45000534618F0C5FBC8B110A8FEF759FF0146D6
:10A4600010A8FFF7A7FD42E6EC4A0400D036002012
:10A4700084370020403000203C3000200010014094
:10A48000DA4A0400A34904006C3700209DF85720E5
:10A490009DF84930002A14BF08220C2203FB022237
:10A4A00014BF4FF480734FF4C0739A4216D9294BEE
:10A4B0001B685C077FF5AEAE274B1B68002B7FF750
:10A4C000A9AE264B2649D3F804350192254A0092BD
:10A4D000012040F27F3203F00BFF08E6022110A8B2
:10A4E000FFF716F8044600287FF40FAF014610A8C6
:10A4F000FFF760FD2C22214605A819F047FA10232A
:10A500008DF8143005A802238DF81C3000F098F85F
:10A51000EDE5002B14BF08230C239A453FF456AFFA
:10A5200004212046FFF790F8E1E59A0706D50123BC
:10A5300010AA5FFA88F1304618F04AFA4B4610AA82
:10A5400008F1FF31701CFFF7EDFA63E60E25CEE54A
:10A550000546CCE5403000203C3000200010014092
:10A56000A3490400C64A0400F7B5184C0026254646
:10A57000374695F84830012B0BD101A928460197A1
:10A58000FEF716FF042801D0019B13B12846FFF700
:10A5900019FA0136042E05F17005EAD1002594F868
:10A5A0004830022B0AD194F86830022B06D1E16CB6
:10A5B0002046FFF7FFFC08B984F868000135042D38
:10A5C00004F17004EBD1012003B0F0BD843700200A
:10A5D0002DE9F8430F46054638B3DFF86080D8F818
:10A5E0000060012E1FD8002400F10409BC420BD1E9
:10A5F000114B43F8365003EBC60301365C60C8F8D4
:10A6000000600020BDE8F88359F834306BB115F9CB
:10A61000343015F83400002B09DB50B1FEF742FE50
:10A6200038B90134E2E70420ECE70E20EAE70B201A
:10A63000E8E70F20E6E700BF583700205437002036
:10A64000F8B5054610B97846FEF76AFD104F3C682C
:10A6500084B1104E0123337023791BB954F8043CA4
:10A66000284698472468002CF6D13378022B02D074
:10A6700000233370F8BD3968054C0029F8D00B79F8
:10A680000D6813B1204603F0BAFD2946F5E700BF77
:10A69000483900204439002010B5044610B97846E6
:10A6A000FEF73EFD00232372211D0248BDE8104045
:10A6B00003F084BD4839002010B5044610B978462F
:10A6C000FEF72EFD074A1378013B012B04D8022325
:10A6D00013700123237210BD211D0348BDE81040F3
:10A6E00003F08DBD44390020483900200B88826872
:10A6F000D25A073222F00302134402889BB2043A72
:10A70000934288BF00230B80704713B58368C91A32
:10A71000ADF806100DF10601FFF7E8FFBDF80630B1
:10A720008068184402B010BD70B5064615460C4648
:10A7300011B97846FEF7F4FC16B97846FEF7F0FC3E
:10A74000B4F1005F24D94FF08053D3F80C3103F5F6
:10A750000023B4EB832F1ED26B1E2344B3F1005FA2
:10A7600026D94FF08052D2F80C2102F50022B3EB2B
:10A77000822F20D2042D02D87846FEF7D1FC002388
:10A7800035807380B380B460043DA370258070BDB4
:10A79000B4F5000F08D94FF08053D3F80C3103F50E
:10A7A0000053B4EB832FD7D37846FEF7B9FCD3E739
:10A7B000B3F5000F08D94FF08052D2F80C2102F502
:10A7C0000052B3EB822FD5D37846FEF7A9FCD1E730
:10A7D00038B5044610B97846FEF7A2FC6288A36833
:10A7E00013449B78012B02D17846FEF799FCEFF3D6
:10A7F000108572B6A268A18811448B78032B0AD108
:10A800002046FFF782FFA368C31A6380002383708A
:10A8100005B962B638BD002393706380A380F7E763
:10A82000F8B50E461546044610B97846FEF778FC92
:10A8300016B97846FEF774FC6288A36813449B78C7
:10A84000012B02D17846FEF76BFC002D37D0238810
:10A85000043B9BB29D4232D8EFF3108772B66288F8
:10A86000A388E81D20F003009A4280B204D29B1A0C
:10A87000984210DD042016E018D92188891A8142F7
:10A8800009D29842F6D8032981BFA3689B180422F5
:10A890009A70002363806288A1688B188D52012210
:10A8A0009A700020336007B962B6F8BDA2681344FD
:10A8B0009B78002BDED193706380A380EBE70920A7
:10A8C000F3E7F8B50D461646044610B97846FEF78C
:10A8D00027FC15B97846FEF723FCAB78012B02D094
:10A8E0007846FEF71DFC2B88B34202D27846FEF76D
:10A8F00017FC16B97846FEF713FCEFF3108772B613
:10A900000223AB70E1182E802046FFF7EFFE62882D
:10A91000A38893421FBFA3689B1800229A7007B9AF
:10A9200062B6F8BD70B50D46044610B97846FEF71C
:10A93000F7FB15B97846FEF7F3FBEFF3108672B616
:10A94000A288A36813449A78042A06D1211D2046C0
:10A95000FFF7CCFEA288A36813449A78022A05D098
:10A96000032A08D0052006B962B670BD03229A708A
:10A970002B600020F7E77846FEF7D2FBF9E738B501
:10A98000044610B97846FEF7CBFBEFF3108572B69C
:10A99000A088A16801448B78042B03D12046FFF7DF
:10A9A000B4FE01468878831E5842584105B962B604
:10A9B00038BD38B5044610B97846FEF7B1FBEFF361
:10A9C000108572B6A088A16801448878C31E012B47
:10A9D00005D9831E5842584105B962B638BD204694
:10A9E000FFF793FE0146F0E7F8B50D46044610B9AF
:10A9F0007846FEF795FB15B97846FEF791FBEFF325
:10AA0000108672B6AB78012B19D0032B22D1A28805
:10AA1000A36813449D4202D07846FEF781FB0027CD
:10AA2000AF70211D2046FFF761FEA288A368134482
:10AA30009B78042B00D1A78006B962B6F8BD628866
:10AA4000A36813449D4202D07846FEF769FB0023B9
:10AA5000AB70F1E77846FEF763FBEDE710B5EFF377
:10AA6000108472B68288816811448B78042B02D1DD
:10AA7000FFF74BFE01468878B0FA80F0400904B930
:10AA800062B610BD037942799B1A03F57F2303F662
:10AA9000FF7300EB03307047024B00221A769A6076
:10AAA000022070474C39002010B5054884681C22EC
:10AAB000002118F06BFF2046BDE8104004F09AB961
:10AAC0004C39002070B5194CE36813B97846FEF78D
:10AAD00027FB237E13B17846FEF722FB63680A2B1F
:10AAE00002D97846FEF71CFB114D0026636855F825
:10AAF00023309847022811D003280DD0012810D107
:10AB0000636801330A2B636002D97846FEF708FBBD
:10AB1000237E002BEAD004E06660F9E7237E0BB1C8
:10AB2000207070BDBDE87040FFF7BEBF4C390020FB
:10AB30008C4B0400074A002352F8041B814202D1C7
:10AB4000054A5360704701330B2BF5D17846FEF769
:10AB5000E7BA00BF8C4B04004C390020038810B5C5
:10AB6000044613B97846FEF7DBFA2088084B04EB5D
:10AB7000800030EA030203D06288B2F5FE4F05D1AF
:10AB800004EA030000F580500378184410BD00BFAC
:10AB900000F0FFFF70B504460D4647F6FE66FFF76E
:10ABA000DDFFA84207D2844205D24388013B9BB215
:10ABB000B342F4D870BD0020FCE700000A78094BCE
:10ABC000032A04BF002119761978012903D11B7EBD
:10ABD0003BB9FFF777BF022903D1032A01D1FFF761
:10ABE00063BF70474C39002010B50C4CE3681878EF
:10ABF000002203F58051184404F0DEFD50B9E168ED
:10AC00000846FFF73FFF814206D001F58051E16021
:10AC1000032010BD0120FCE70220FAE74C39002098
:10AC20001FB50A4B0222DB688DF800200193084A09
:10AC30004FF4805369460120029300F0D5FFB0FA2B
:10AC400080F0400905B05DF804FB00BF4C390020DE
:10AC50006A3900201FB50123CDE902210190054A80
:10AC60008DF800306946184600F0BEFF05B05DF86B
:10AC700004FB00BF6A3900202DE9F047254EF0683B
:10AC800003794279013B9A4203D101207076BDE8F5
:10AC9000F08700F58053DFF880801C781C44D8F8DA
:10ACA000003013F8045F1D44FFF7ECFE6388013B9E
:10ACB0009BB247F6FE62934200F5805704D92046C6
:10ACC0003946FFF767FF0446DFF850A04FF001094F
:10ACD0002CB9B4FA84F4640974760120D7E7D8F863
:10ACE00000106288284601F5805104F065FD054694
:10ACF0000028EED004225146204686F81890FFF72F
:10AD0000A9FF28B920463946FFF744FF0446DFE78C
:10AD10000020BCE74C3900206C390020344E040080
:10AD200038B5104CE36818784FF6FF7203F5805180
:10AD3000184404F041FD88B1E36819780B44984247
:10AD40000CD0657E0849094B0422002D08BF194626
:10AD5000FFF780FF20B90120207638BD0120FCE7F5
:10AD60000020FAE74C3900203C4E0400384E040025
:10AD700070B50C4D0C4EE96830680C7804302246F2
:10AD8000FFF768FF58B93268EB6804F0FC0404343C
:10AD900014441A786C6113442B61012070BD0020AB
:10ADA000FCE700BF4C3900206C39002008B5054B8A
:10ADB000054918680422FFF74DFFB0FA80F04009FA
:10ADC00008BD00BF6C39002058390020074B10B572
:10ADD0001968074C40F6FC72E0680431FFF73AFF4F
:10ADE00010B90120207610BD0020FCE76C3900204E
:10ADF0004C39002010B50C4CE1680846FFF742FEC4
:10AE000081420AD1094B0A4918680422FFF722FF40
:10AE100040B901232376022010BD01F58051E16085
:10AE20000320F9E70020F7E74C3900206C390020B7
:10AE3000703900202DE9F74F324D2B6913B9784650
:10AE4000FEF76EF96B6913B97846FEF769F9DFF81A
:10AE5000B89047F6FE6A6B69D5E9030603EA09086C
:10AE6000A8EB0308FFF70EFE7388013B9BB2534526
:10AE700008F5805800F5805B06D930465946FFF743
:10AE800089FE0646002835D0344600275C4519D295
:10AE9000228807EB8202904509D986EA040313EA67
:10AEA000090F04D16388013B9BB2534502D957B9BE
:10AEB000012318E020460192FFF750FE019A044654
:10AEC0001746E3E7E7B168693A463146FFF7C2FE45
:10AED00090B96B693B446B6114B97846FEF720F971
:10AEE0002C61002334B1618847F6FF72914201D092
:10AEF000002BB0D0012000E0002003B0BDE8F08FAF
:10AF00000123EFE74C39002000F0FFFF1FB50A4B8B
:10AF100002221B688DF800200193084A4FF48053E9
:10AF200069460120029300F05FFEB0FA80F040090C
:10AF300005B05DF804FB00BF6C3900206A390020C1
:10AF40001FB500232A4AD3F8F81F13704A1C0CD1EE
:10AF50004FF010235A69013201D05A6952B94FF0AB
:10AF600080535A691B695A4307E00029F7D0A1F5BD
:10AF7000805202E05A69A2F580521E4B1E4C1B689B
:10AF8000A2F58052DB02226016D51C4B1B68062BF3
:10AF900012DD481C08BF4FF01021194BD3F80435BF
:10AFA00008BF4969CDE90112164A0092164940F2DC
:10AFB0007622072003F09CF9236819684B1E03339F
:10AFC00014D8C1F30B028AB9104B11481A8301241B
:10AFD000D9601C709A60FFF7ADFD20460D4900F066
:10AFE000F3FDFFF76FFD204604B010BD0020FBE726
:10AFF00068390020403000206C3900203C300020AF
:10B0000000100140584B0400414B04004C39002013
:10B0100021AC0200BDAB020010B5044610B9784661
:10B02000FEF77EF8094A107860B1E068D16843798C
:10B03000A0EB0333994206D3FFF724FD81428CBF76
:10B040000020012010BD0020FCE700BF4C3900208B
:10B05000024B1878003818BF012070474C39002087
:10B0600038B5114C2378054613B17846FEF758F8E9
:10B070002B78032B02D07846FEF752F8EB68E3609A
:10B080000A4B0B491B78A560002B14BF0A23002331
:10B090006360012000232070238300F095FDBDE84C
:10B0A0003840FFF70FBD00BF4C3900206839002041
:10B0B000BDAB0200014B1868704700BF6C3900201F
:10B0C00010B5044610B97846FEF72AF863681BB13C
:10B0D00023680BB1A36813B97846FEF721F8A3687B
:10B0E0005A1E1A4202D07846FEF71AF80023C4E925
:10B0F000033310BD70B50E460446F0B18368F3B15A
:10B10000EFF3108572B6D0E90331994203D105B946
:10B1100062B605250FE04EB18368013B0B40D0E9D4
:10B120000012304602FB031118F007FC23690133BB
:10B13000236135B962B6284670BD0E25FBE70925A7
:10B14000F9E70025F7E70000024AD2F80034002BA7
:10B15000FBD0704700E0014038B5C0F30B04ECB9F8
:10B16000F1B1104D0223C5F8043501F6FF7121F449
:10B170007F61FFF7E9FF21F00F010144884206D10A
:10B180000023C5F80435FFF7DFFF204638BDC5F8BA
:10B190000805FFF7D9FF00F58050EFE71024F4E72A
:10B1A0000924F2E700E0014040EA010370B50646D9
:10B1B00098071ED1FAB112F003001CD10F4B94086E
:10B1C0000122C3F80425FFF7BFFF0546A54206D1BB
:10B1D0000A4B0022C3F80425FFF7B6FF70BD51F8F3
:10B1E00025305A1C03D046F82530FFF7ADFF013556
:10B1F000ECE71020F2E70920F0E700BF00E0014093
:10B2000041F2826398429DBF024B1878C0F3C000A0
:10B21000012070470B3A002013B50190000C012863
:10B220000C4602D07846FDF77BFF084A08492368A0
:10B2300013600B7843F001030B7083F00203C3F338
:10B2400040030020137102B010BD00BF043A00207B
:10B250000B3A002013B50190000C02280C4602D0D6
:10B260007846FDF75DFF084B22681A6022791A7153
:10B27000064A002058719871D871137843F0020380
:10B28000137002B010BD00BFFC3900200B3A002043
:10B2900013B50190000C03280C4602D07846FDF748
:10B2A0003FFF034B1A6822601B79237102B010BD67
:10B2B000043A002013B50190000C03280C4602D07C
:10B2C0007846FDF72DFF064B22681A6022791A7125
:10B2D000044A1378002043F00103137002B010BD3C
:10B2E000043A00200B3A002013B50190000C04280A
:10B2F0000C4602D07846FDF713FF034A136823601B
:10B300005368636002B010BDFC39002013B5019092
:10B31000000C04280C4602D07846FDF701FF064ACF
:10B320002368136063685360044A1378002043F075
:10B330000203137002B010BDFC3900200B3A00204C
:10B3400007B50190000C032802D07846FDF7E8FE0F
:10B35000034B00221A601A7103B05DF804FB00BFB2
:10B36000043A002007B50190000C042802D078466A
:10B37000FDF7D6FE034B00221A605A6003B05DF859
:10B3800004FB00BFFC39002000B50A4B1A7B9B6808
:10B390008DB0012A08BF03F1FF3304930390022309
:10B3A00001A88DF808208DF80430FFF749F90DB099
:10B3B0005DF804FBA0390020074A1378590709D526
:10B3C0000178122906D10549086805496FF38203FF
:10B3D00048601370704700BF0B3A0020043A002009
:10B3E000A03900201FB5144C23785B0602D47846A0
:10B3F000FDF796FE237813F004011BD10F4A526823
:10B4000002F50052B2F1807F029213D843F0040398
:10B410000B4A23700323ADF80410ADF80630127800
:10B4200001988DF80C2002A905F008FA10B17846B1
:10B43000FDF776FE04B010BD0B3A0020A0390020C5
:10B440000C3A00201FB5104B996802910F491B7BE5
:10B450008DF80C300B780133DBB200220B708DF8C5
:10B460000F300423ADF80420ADF806300198ADF894
:10B470000D2002A905F0E2F910B17846FDF750FE63
:10B4800005B05DF804FB00BFA03900200C3A002095
:10B4900008B5002005F046FA14220748002118F0EC
:10B4A00075FA064A137823F0600343F040031370E3
:10B4B000BDE80840FFF796BFA03900200B3A0020F6
:10B4C00010B50C4C14220021204618F05FFA01F050
:10B4D000A1F8094B094A0A499A600022C3E90312FC
:10B4E00058605A61074B6260197862F3C3011970A2
:10B4F00010BD00BFA03900207C39002091B60200A9
:10B50000008793030B3A002037B52B4D2B78DB06D1
:10B5100038D42A482A4B036000F0B0FD29482A4B52
:10B52000036000F0ABFD2B7813F0200212D103F082
:10B530000303032B254C27D02260A26022732282B2
:10B54000FFF780FF236863602B7843F040032B7084
:10B55000FFF748FF01230024ADF80630ADF80440A2
:10B56000019805F0BAF90223ADF80230ADF80040B9
:10B57000009805F0B2F9164800F0D8FF2B7843F098
:10B5800010032B7003B030BD124B1A68A2601A79F9
:10B5900022739879597941EA00212182D9790E4B99
:10B5A00019700E4B1879884202D00AB92260C9E797
:10B5B0001B682360C6E700BF0B3A002094390020C7
:10B5C00035B70200F0390020B9B30200A0390020DD
:10B5D0007C390020FC3900200C3A0020043A00207D
:10B5E000034B187880F00400C0F38000704700BF60
:10B5F0000B3A002010B501F027FD0D4A137BA3B9CB
:10B60000947B94B9108AFFF7FBFD70B1012313738B
:10B610009368148201339360FFF714FF2046FFF70D
:10B62000B3FE01F051FD204610BD0824F9E700BF2C
:10B63000A039002010B501F007FD144A547B9CB1DD
:10B64000917B09BB108AFFF7DBFD044660B1137BD9
:10B6500051732BB1012B0BD07846FDF761FD03E050
:10B66000FFF7C8FF0028F7D101F02EFD204610BDDE
:10B670000846C2E9001111731182FFF785FEFFF73A
:10B68000E1FEFFF7AFFEEFE70024EDE7A039002071
:10B690001FB5264C227B2AB1012A0FD07846FDF730
:10B6A0003FFD1CE0208AFFF7ABFDC0B1FFF7C2FFF2
:10B6B000638A0BB1013B638204B010BD218A084646
:10B6C000FFF79EFD58B142F2B013994288BF6273F2
:10B6D000FFF7B0FF0028EBD1637B002BE8D1238A72
:10B6E00001339BB21E21B3FBF1F201FB123292B285
:10B6F0002382002ADCD1ADF80D300D4BA1681B78F8
:10B700008DF80F3004230291ADF80420217BADF8B1
:10B7100006308DF80C10019802A905F08FF800286A
:10B72000C6D07846FDF7FCFCC2E700BFA039002078
:10B730000C3A002010B50378042B0ED143681B7817
:10B740005BB11C4B4269197B047E69BB598AF9B90C
:10B75000012C996802D08A4203D810BD4C1CA24229
:10B7600018D92A318A42F8D8997B0029F5D1846802
:10B770009A60114A1A619981C3E90011FFF762FECC
:10B78000FFF730FE04F11000BDE81040FFF7FCBDEC
:10B79000012CE2D1996801318A42DED10122BDE853
:10B7A00010405A73FFF746BF0129D6D1012CD4D0DF
:10B7B0009968F1E7A03900200000062D10B50C4C67
:10B7C000236828B101210B4A0B449173236010BDFB
:10B7D00013B97846FDF7A4FC2368013B2360002BD6
:10B7E000F5D1044ABDE810409373FFF723BF00BFB3
:10B7F00074390020A039002000B58DB00323ADF8C6
:10B80000080001A88DF8102003918DF80430FEF790
:10B8100017FF0DB05DF804FB014B9868704700BF3F
:10B82000A0390020034B98681B7B012B08BF00F157
:10B83000FF307047A03900201A4B1B785B0670B5AB
:10B8400005460E462AD5184CD4E900239A4223D245
:10B85000207B164B1649012808BF0B469A4207D297
:10B8600063682268403B9A4208D3FFF7BBFD05E0BE
:10B8700001236373FFF7DEFE0028F1D0EFF310829F
:10B8800072B62368591C21603360FFF7CBFF286034
:10B8900032B962B6104670BDFFF7A4FD0F22F9E77A
:10B8A0000022F7E70B3A0020A0390020FFFF7F00BD
:10B8B00000E0FF00044B9B685840C20748BF03F1FB
:10B8C000FF331846704700BFA0390020014B187B9A
:10B8D000704700BFA0390020F8B50F4E337813F041
:10B8E0002004174615D10D4D43F020033370297302
:10B8F000A8602C82FFF7A6FD2046FFF745FD3378B0
:10B9000043F04003C5E900773370FFF76BFD204635
:10B91000F8BD0820FCE700BF0B3A0020A03900204A
:10B920000022FFF7D9BF00002DE9F3411D4CDFF8DD
:10B93000788000250221204602F0AFFAEFB20146DE
:10B940000026B9B96EB12046019102F00DFB08281E
:10B95000019906D154F8043C1BB10A4638464146C9
:10B9600098470135032D04F1BC04E3D1012002B056
:10B97000BDE8F08154F8043C1BB134F80C2C384677
:10B98000984734F80C3C02210133204624F80C3C43
:10B9900002F09FFA0221204602F07FFA01360146AA
:10B9A000CFE700BF243A0020C84B040038B501217E
:10B9B00004460C3002F071FA054620B3154BC4F86A
:10B9C0009C300023C4F8A03003786168012B07D0B5
:10B9D000022B1AD07846FDF7A3FB4FF4FA7306E06A
:10B9E0008268531A9B082922534303F5FA730A4AC3
:10B9F000934294BFC4F8A830C4F8A8200123C4F827
:10BA0000AC4084F8B830284638BD8368034A5B1AD6
:10BA10001B0BE9E741BA020060850100084C0100F8
:10BA200010B50446FFF7C2FF48B104F19C000CF0CA
:10BA300047F920B17846BDE81040FDF771BB10BD55
:10BA40004A4B1B782DE9F74F07460C463BB10CF0EB
:10BA50006DF9002384F8B83003B0BDE8F08F01F130
:10BA60000C09D1F8A8504846012102F016FA064602
:10BA700010B97846FDF754FBDFF8F8A0A5F5FA7881
:10BA80004FF0290B00253378012BA8EB050506D0D4
:10BA9000022B3BD07846FDF743FB00231FE0636891
:10BAA000B268B5FBFBF5D21AAD00954228BF15462A
:10BAB00025B901937846FDF733FB019BF168706867
:10BAC00023F003032A4619441844FFF76DFB10B115
:10BAD0007846FDF725FB63681D446560B3686268BE
:10BAE0009A422AD10CF022F94846012102F0F1F9DC
:10BAF0000023636084F8B8301D4B186801F032FBF6
:10BB0000204603B0BDE8F04FFFF78ABF6368B26814
:10BB1000B5FBFAF5D21A2D03954228BF154625B973
:10BB200001937846FDF7FCFA019B706823F003034C
:10BB300029461844FFF710FBC9E701F077F933787D
:10BB4000C51B48BF3D1A012B0BD0022B0BD07846EA
:10BB5000FDF7E6FA00232B44434594D90CF0E6F8B0
:10BB6000CEE72923F7E75346F5E700BF143A002054
:10BB7000103A0020084C01002DE9F0410F48104C0C
:10BB800001F0D2FA0F4B002518604FF0080810277B
:10BB9000032604F11C03636104F10C0004F1180393
:10BBA000013584F80E8067732673236102F0B8F9BB
:10BBB000032D04F1BC04ECD1BDE8F08129B90200E9
:10BBC000183A0020103A0020022838B504460D46E5
:10BBD00002D97846FDF7A4FA0248BC2303FB04040B
:10BBE000A56038BD183A002002282DE9F84F054617
:10BBF0000C46924602D97846FDF792FA14B9784677
:10BC0000FDF78EFA2378012B12D16368990702D0D1
:10BC10007846FDF785FAE3689A0702D07846FDF783
:10BC20007FFAA3689B0711D07846FDF779FA0DE0FB
:10BC3000022B0DD16368C3F30B0313B17846FDF7F4
:10BC40006FFAA368C3F30B03002BEDD1A36813B9FC
:10BC50007846FDF765FAEFF3108772B6BC26DFF879
:10BC600094906E4306F10C0BCB440021584602F031
:10BC700014F9804638B30021584602F02AF904F13D
:10BC8000100354F8042B48F8042B9C42F9D1BAF164
:10BC9000000F05D0BC2303FB05935B88AAF8003096
:10BCA000BC2000FB05956B8895F8B84001336B808C
:10BCB000E4B90F4B1D783DB909EB0600FFF776FE9E
:10BCC0002FB12C4605E004246FB92746002062B648
:10BCD0003C4640B106F19C0048440BF0F1FF10B126
:10BCE0007846FDF71DFA2046BDE8F88F0024EBE703
:10BCF000143A0020183A0020F8B5EFF3108772B616
:10BD0000114D2B68E0B913B97846FDF709FA2C6894
:10BD1000013C2C605CB90D4E96F8B83013B9304632
:10BD2000FFF77EFE0134032C06F1BC06F4D12B682C
:10BD3000074A003B18BF0123137007B962B6F8BD6C
:10BD400001332B60F3E700BF4C3C0020183A002081
:10BD5000143A002010B1024B800B185C704700BFF2
:10BD6000D84B040012DF704707B501F069FD90B1B0
:10BD70000A4B1B685B060ED5094B1B68012B0ADDBD
:10BD8000084B094AD3F80435084901900092022073
:10BD9000752202F0ADFA03B05DF804FB40300020DC
:10BDA0003C300020001001402C4C0400214C0400C9
:10BDB00070B58AB00CF086FC0446002834D000230D
:10BDC0008DF8103006460FCE05AD0FC533682B60D9
:10BDD000627D052A0CD9207D00F00F03072B07D0C8
:10BDE00004AB063A04F11D0100F00F000BF0EEFA6F
:10BDF000114B1A68AAB104AB0393237DC3F3030369
:10BE00008DF80430637D062B89BF063B00238DF837
:10BE1000053004F11D0398BF8DF80530029301A889
:10BE2000904720460CF038FC0CF066FC80F00100D6
:10BE3000C0B20AB070BD00BF583C002010B5114C14
:10BE40002378022B8CB005D07846FDF769F90120E4
:10BE50000CB010BDFFF7C4FB18B90B48FEF71CFC73
:10BE6000F5E70CF0FBFB03232C22002101A8237033
:10BE700017F08CFD1D2301A88DF80430FEF7E0FBC0
:10BE8000E5E700BF543C00203030002000B50A4BED
:10BE90001A78042A8DB00CD105221A7000212C22A8
:10BEA00001A817F073FD1C2301A88DF80430FEF7DC
:10BEB000C7FB0DB05DF804FB543C002008B50378C7
:10BEC000122B08D10448FEF7F7FB044B1868BDE8B5
:10BED000084001F047B908BD30300020503C002038
:10BEE000F7B5314F3B780546002B52D1002852D090
:10BEF000067A0F2E01D0062E4FD105F0F7FBE86829
:10BF0000002843D0FDF71CF90DF10700FFF72AFFC9
:10BF10000446C0BB9DF80730012B40D1FDF73CF92A
:10BF200000F0ECFA304601F041F8E87800F072F9E0
:10BF300000F078FE0BF05AFE1C480CF073FC0BF07E
:10BF4000C5FB0BF019FAFFF717FE04F021FC00F017
:10BF50000DFD05F08BFB05F083F9284601F0D4FBBD
:10BF6000FDF700FF03F042FFFDF738F808B106289F
:10BF700017D10F4801F0D8F80E4B18600E4B002275
:10BF80001A6001233B70204603B0F0BDFDF7E4F8D2
:10BF9000BAE70824F7E70E24F5E70724F3E70224BD
:10BFA000F1E70446EFE700BF543C0020B1BD0200BA
:10BFB0003DBE0200503C0020583C002037B51C4DCF
:10BFC0002B78012B04D0043B012B24D908241DE03D
:10BFD00001F0A8FBFDF708FFFDF700F80446C0B12B
:10BFE000062816D0134B1B685B040FD5124B1B6839
:10BFF000012B0BDD114B124AD3F804351149019086
:10C00000009202204FF4C27202F072F9204603B08F
:10C0100030BD00F0F7FF0BF045FE04460028F5D1D7
:10C0200002232B70084B186801F09CF8EEE700BF64
:10C03000543C0020403000203C30002000100140E3
:10C04000554C0400214C0400503C002008B5084B1E
:10C050001A78032A0AD1042206481A700BF0E8FD68
:10C0600018B17846FDF75CF8002008BD0820FCE711
:10C07000543C00208DBE0200FDF7B8BEFEF70CBB9D
:10C08000FEF71ABB08B500F09DFD002008BD06F0C4
:10C090000BBC0000044B1A680132B2F1704F08BFAC
:10C0A00001221A60186870475C3C002010B50446F5
:10C0B00010B97846FDF734F80023C4E9003310BD09
:10C0C00038B50D46044610B97846FDF729F815B97C
:10C0D0007846FDF725F800236B60EFF3108372B606
:10C0E000226822B92560656003B962B638BD62680E
:10C0F0005560F8E710B5044610B97846FDF710F81A
:10C10000EFF3108272B6206820B90023636002B991
:10C1100062B610BD43682360002BF8D1F5E710B577
:10C12000044610B97846FCF7FBFF206810BD38B50F
:10C130000C46054610B97846FCF7F2FF14B978466C
:10C14000FCF7EEFF2046FFF7EAFF90B12846FFF725
:10C15000E6FF40B994E8030085E803002046BDE807
:10C160003840FFF7A3BF6B6822685A6063686B6052
:10C17000F4E738BD037A13B10023037270474368B4
:10C180001B680433436070471FB50368024640686C
:10C19000191D884209D1CDE9013300238DF80C30F7
:10C1A000029B51681B6809688BB9D2E900131C68AF
:10C1B0004868844205D18B420BBF0021181F59608B
:10C1C00048601968496819600123137204E08B42C2
:10C1D00001A803D1FFF7D8FF04B010BDFFF7CAFFD5
:10C1E000DEE735DF7047000008B54FF0FF30FFF79E
:10C1F000F8FFBFF34F8F0549054BCA6802F4E062B0
:10C200001343CB60BFF34F8F00BFFDE700ED00E0AD
:10C210000400FA0507289ABF024B33F81000FA20F1
:10C22000704700BF7A4C0400024B5868103840B287
:10C23000704700BF00ED00E000280346B8BF00F1E2
:10C240001F03084A5B1152F82330424202F01F02DA
:10C2500000F01F0058BF504223FA00F000F0010028
:10C26000704700BF00E100E046DF704730B501F1E4
:10C2700010031032103013F8014D12F8015D8B429B
:10C2800084EA050400F8014DF5D130BD2DE9F04FE9
:10C2900091B002F10F0604AC1D46894636110346E3
:10C2A00000F1100CA24618685968274603C70833E6
:10C2B00063453C46F7D102F00F04002E59D0B4FA82
:10C2C00084F84FEA58181022002108A817F05EFBE6
:10C2D000C8F1020B5046FFF7C7FF5FFA8BFB012244
:10C2E0000CA89DF930100023074690F800C010F804
:10C2F00001EF01339BB24FEA4C0C4CEADE1C0F2BD2
:10C3000000F801CCF1D19DF83F305B00DBB2002991
:10C31000B8BF83F087038DF83F30531C9B454FF027
:10C320000202DDD2013E09EB0611B8F1000F22D066
:10C330000CAA6846FFF79AFF102200210CA817F0FC
:10C3400025FB0024B44229DB3A46694608A8FFF7DA
:10C350008DFF5046FFF788FF10AA3B4603CB934260
:10C36000286069601F4605F10805F6D111B0BDE8E7
:10C37000F08FB046A7E72246684617F0DEFA10AB0A
:10C3800023448022601C03F8402C4146C4F10F0274
:10C39000684417F0FBFA0CAA6946CAE709EB0412D5
:10C3A000394608A8FFF762FF5046FFF75DFF0134EA
:10C3B000C8E7000038B5114B1A6804462AB11A685C
:10C3C00040685268821A002A0DDA1A6862611C609D
:10C3D0009A88013292B29A8012B97846FCF7A0FE90
:10C3E0000123237038BD1A68154652691AB1516885
:10C3F000091A0029F8DB62616C61E9E7683C0020FA
:10C400000F4B1A68824210B504460DD142691A607A
:10C410009A8892B2511E89B2998012B97846FCF777
:10C420007FFE0023237010BD1A68002AF9D05169DD
:10C43000A14202D161695161EAE70A46F5E700BF0E
:10C44000683C0020014B186800F08CBE603C002066
:10C45000044B1A6822B11B680349586800F062B99E
:10C4600000F0B8B9683C002045C40200F8B500F0FF
:10C47000D1F8214E05460027336823B133685B6845
:10C480005B1B642B05D400F0C5F8FFF7E1FF01202A
:10C49000F8BD34682378012B02D07846FCF740FEC3
:10C4A00063693360B38867619BB25A1E92B2B280EF
:10C4B00013B97846FCF734FEA36813B97846FCF745
:10C4C0002FFE0223284621692370A368984700F0B5
:10C4D000A1F82378022B0546CED1E2680AB9227072
:10C4E000CAE763681344591B6429FBD46360204680
:10C4F000FFF760FFC0E700BF683C0020074A08481C
:10C5000008B500231370074A1360536000F00CFE57
:10C51000054B1860BDE8084000F06EB8643C002090
:10C520006DC40200683C0020603C0020134B1B7867
:10C5300010B5044613B17846FCF7F2FD00F0EEFEAC
:10C5400010B97846FCF7ECFD14B97846FCF7E8FD25
:10C55000A36813B97846FCF7E3FD2378012B02D1D9
:10C560007846FCF7DDFD002363612046FFF722FFDC
:10C5700000F050F8BDE81040FFF76ABF643C0020AF
:10C5800010B5044600F0CAFE10B97846FCF7C8FDA5
:10C5900014B97846FCF7C4FD2046FFF731FF0023AD
:10C5A000636100F037F8BDE81040FFF751BF0000AD
:10C5B00038B5104B1B7804460D4613B17846FCF78E
:10C5C000AFFD00F0ABFE10B97846FCF7A9FD14B939
:10C5D0007846FCF7A5FD2046FFF712FF00236361B4
:10C5E00020466560FFF7E6FE00F014F8BDE838402D
:10C5F000FFF72EBF643C002008B514F0BDFF38B92A
:10C6000014F0E2FE20B17846BDE80840FCF788BD92
:10C6100008BD000010B5EFF3108072B60C490D4B49
:10C620001A68D1F80435D1F80441012C04BFD1F8BF
:10C630000435013200B962B6074943EA02634FF498
:10C6400080400022E3FB0102C00B40EA424010BDE3
:10C6500000100140703C002040420F000A4B10B512
:10C660004FF40032094CC3F84823C3F80823236869
:10C6700013B97846FCF754FD2468FFF7CBFF234637
:10C68000BDE81040184700BF001001407C3C00206E
:10C6900070B5EFF3108072B61D4B1E490022C3F82F
:10C6A00004210A6801320A6000B962B61A4A1168A8
:10C6B000F9B11168013911601268D2B91749D3F87C
:10C6C00004050A68904215D2EFF3108072B6D3F8D1
:10C6D00004250C68951CA54234BF0A680332C3F8D0
:10C6E000442500B962B64FF40032C3F84423C3F8BE
:10C6F000042370BD0A4C236813B97846FCF710FD7B
:10C700002468FFF787FF2346BDE87040184700BF45
:10C7100000100140703C0020743C0020783C002058
:10C720007C3C002073B50023054601930C4611B9EB
:10C730007846FCF7F5FC214B1C60FFF76BFF431BB1
:10C74000002BB8BF2C1A4FF000061D481D4AA8BF89
:10C7500034464FF4004531460023E4FB050116F052
:10C76000ADFFEFF31083019372B6174A174CD2F85E
:10C7700004350328C3F1FF1101F57F4138BF0320C1
:10C78000814213490FD30344C2F844354FF40033B8
:10C79000C2F84433C2F8043326600E60019B03B92B
:10C7A00062B602B070BD03F17F43013303441A0E39
:10C7B000013223F07F4322600B60EFE77C3C0020D6
:10C7C00020A1070040420F0000100140743C0020EF
:10C7D000783C0020074B4FF40032C3F84823C3F8DD
:10C7E0000823054A00231360044A1360044A1360B7
:10C7F000704700BF00100140743C0020783C0020CE
:10C800007C3C0020D1E9003230B46FF00045AB42EF
:10C8100072F10005184628BF0D48144628BF0024B1
:10C820001B1A62EB040253EA0200C1E9003205D18F
:10C830000023CB6130BCD1E9023018476FF00040D3
:10C84000834272F1000228BF014BCB6130BC7047BC
:10C85000FEFFFF7F10B5C0E90212DDE90223C0E947
:10C8600000230B4B836104460062FFF7D3FED4E93B
:10C8700000326FF000418B4272F1000228BF054B7D
:10C88000C11804F11000BDE81040FFF791BE00BFD1
:10C8900005C80200FEFFFF7F1030FFF771BE10B524
:10C8A0000446FFF7B7FE6269831A48BF131AD4E93A
:10C8B00000210020934270EB010403D2D01A61F1F1
:10C8C000000110BD0146FCE730DF704731DF7047E3
:10C8D00010B5D0E900238468C168A2EB731283EA23
:10C8E000F43303600C441344114444608160C3601A
:10C8F000184610BD73B50D46064610B97846FCF7CC
:10C900000FFC0024A54201D802B070BD0DF1070054
:10C91000FFF7DAFF9DF80720002AF7D02B1B9A4279
:10C9200088BF8DF8073030199DF80710FFF7CEFF4C
:10C930009DF807301C44E5E737B504210446002381
:10C940000DEB01000193FFF7D5FF074B2360019B1F
:10C95000E360C4E9013314252046FFF7B9FF013D28
:10C96000FAD103B030BD00BFED5EEAF1704703209D
:10C9700003F0D8BF48DF704749DF70474ADF704790
:10C98000074B032218681A74064A5A6140F6D861A8
:10C9900043F2B063884298BF0B469360704700BF74
:10C9A000BC3C0020DC3C0020064B1A68064B1B6890
:10C9B000A2F1780028335343044AB3FBF2F3C01AC0
:10C9C000704700BFBC3C0020D83C002040420F0014
:10C9D0000D4B012210B55A710C4A00241C741368C7
:10C9E0000133136000F07EFA0BF016FAFFF7DCFF5C
:10C9F000074A0146204600F0E5F920B17846BDE837
:10CA00001040FCF78DBB10BDBC3C0020F03C00206A
:10CA100081C902001F4B10B45A6928B11968DC683B
:10CA200011440134DC601960996801240131E2404D
:10CA300001291C7499601C685A610ED002291AD011
:10CA40005B69154A1C44944203D840F6D76293426E
:10CA50001CD85DF8044BFFF7BBBFB2F5FA7F03D1DA
:10CA600030B900225A61EBE740F6D8618A42E7D834
:10CA700040F6D862F6E7DA68022A02D1064A121BAB
:10CA8000F0E7012ADCD10028EBD0D9E75DF8044BB0
:10CA9000704700BFBC3C00208096980070B5414CA8
:10CAA000414D012323712B781BB1404B1E78002E82
:10CAB00059D000232374042851D8DFE800F0034B39
:10CAC000484642003A4DA179AA68C4E90233236876
:10CAD000226099B3012121743649002B08BF0B460F
