:020000022000DC
:1070000000F003206D7302005573020057730200F5
:10701000597302005B7302005D7302000000000000
:107020000000000000000000000000005F7302008C
:1070300061730200000000006373020065730200C8
:1070400067730200677302006773020067730200D0
:1070500067730200677302002190030067730200E8
:107060006773020067730200A96903006773020077
:1070700067730200677302006773020067730200A0
:10708000677302001DF003000DC502006773020064
:10709000EDF0030067730200ED99030067730200CF
:1070A0006773020067730200677302006773020070
:1070B0006773020067730200000000000000000018
:1070C0006773020067730200677302006773020050
:1070D0006773020067730200677302006773020040
:1070E000677302006773020067730200000000000C
:1070F00000000000677302000000000067730200D8
:10710000000000000000000000000000000000007F
:10711000000000000000000000000000000000006F
:10712000000000000000000000000000000000005F
:10713000000000000000000000000000000000004F
:10714000000000000000000000000000000000003F
:10715000000000000000000000000000000000002F
:10716000000000000000000000000000000000001F
:10717000000000000000000000000000000000000F
:1071800000000000000000000000000000000000FF
:1071900000000000000000000000000000000000EF
:1071A00000000000000000000000000000000000DF
:1071B00000000000000000000000000000000000CF
:1071C00000000000000000000000000000000000BF
:1071D00000000000000000000000000000000000AF
:1071E000000000000000000000000000000000009F
:1071F000000000000000000000000000000000008F
:10720000344935480A1A02D0072291438D46334942
:1072100033480A1A06D00722914381F309880222D3
:1072200082F314882F483049304A00F042F8304841
:107230003049314A00F03DF830483149314A00F0D8
:1072400038F831483149324A00F033F83148324990
:10725000324A00F02EF832483249334A00F029F819
:1072600032483349334A00F024F833483349002286
:1072700000F02AF832483349002200F025F832485D
:107280003249091A082902DB0022026041601F48C6
:107290001F49884205D00268043003B4904703BCFC
:1072A000F7E700208646EC4600200021284A904758
:1072B000FEE7884207D0521A05D0037801300B70E0
:1072C0000131013AF9D17047884202D00270013091
:1072D000FAE7704700F0032000E8032000F00320E5
:1072E00000F00320CC1B0400002E0020B02E002054
:1072F000A0730200A073020062F90300CC1B04001B
:10730000002E0020002E002034FD030034FD030079
:1073100034FD030034FD030034FD030034FD03009D
:1073200034FD030034FD0300CC1B04007C1C04006E
:10733000B02E0020B02E0020B02E0020A05E002035
:10734000A05E0020A05E0020A05E0020A0620020C1
:10735000D5780200FEE7FEE7FEE7FEE7FEE7FEE780
:10736000FEE7FEE7FEE7FEE700F002B8FFF7FCBF2E
:1073700008484FF00701884385460748804707487B
:10738000016841F470010160BFF34F8FBFF36F8F4D
:10739000FFF736BF00F00320A59C030088ED00E056
:1073A00041DF70477FB51A4B50681B6803F4804378
:1073B000C0B1A3B1174B1B68032B10DD164BD3F8DC
:1073C0000435049050780390127802924A88019212
:1073D000124A00921249C322042006F057F807B05F
:1073E0005DF804FB002BFAD00A4B1B68032BF6DD7B
:1073F000094B1278D3F8043502924A880192094A5F
:1074000000920749C822042006F040F8E7E700BFD1
:10741000482E0020442E002000100140AEFD030045
:10742000A7FD030000FE0300012A07B518D0022AB9
:107430002AD0002A37D1204B1B6859040DD51F4B89
:107440001B68032B09DD1E4B1E4AD3F8043500923E
:10745000AA221D49042006F019F803B05DF804FBC8
:10746000062232210F2000F049FD134B1B685A04FD
:10747000F3D5124B1B68032BEFDD114B134AD3F8E6
:1074800004350092AF22E4E70B4B1B685B04E4D5A4
:107490000A4B1B68032BE0DD094B0D4AD3F804357A
:1074A0000092B322D5E70B4AB721032003B05DF861
:1074B00004EB12F0EEBC00BF482E0020442E00204A
:1074C0000010014029FE0300A7FD030049FE030050
:1074D00069FE03004FFD030070B55B4E33685A042C
:1074E00086B0044600F101050ED5584B1B68032BEE
:1074F0000ADD574B574AD3F8043557490092019596
:10750000EC22042005F0C2FF6B1E032B06D8DFE837
:1075100003F00241024101238DF80C304F4A1378E9
:107520008DF80D30591C32206423CDE904303368C6
:1075300011705B0411D5454B1B68032B0DDD444BCB
:107540009DF80C20D3F804350192454A0092424937
:1075500040F20312042005F099FF022D1CD8F5B16A
:10756000404C20880CF002FE03A9204604AA17F024
:107570001BFC9DF80C1004460D2000F05BFC082C51
:1075800059D8082C59D8DFE804F01C585858295805
:10759000584229000023BFE7023C012C13D933686D
:1075A00059040ED5294B1B68032B0ADD284B2E4AA4
:1075B000D3F804352849009204204FF48C7205F06A
:1075C00065FF06B070BD03A92848022304AA17F07E
:1075D0003BFC9DF80C1004460E20CEE733685A049D
:1075E0000FD51A4B1B68032B0BDD194B204AD3F820
:1075F00004351949009201954FF49272042005F068
:1076000045FF062232210F2000F078FCD9E73368CD
:107610005B04D6D50D4B1B68032BD2DD0C4B154AF2
:10762000D3F804350C49009201954FF49872042068
:1076300005F02CFFC5E7112CD0D00F4A4FF49A71FA
:10764000204612F026FCBCE7482E0020442E0020E5
:10765000001001408BFE0300A7FD0300192F00203E
:107660009EFE0300B02E002064000400E42E0020E3
:10767000B9FE0300D0FE03004FFD03001B4B1B6847
:107680005B0437B50ED51A4B1B68032B0ADD194B6B
:10769000194AD3F804351949009204204FF4A47212
:1076A00005F0F4FE164C174D2563002301212046FA
:1076B000A362A38517F04EFB20B1134A40F251118B
:1076C00012F0E7FB0023114865660221E365A4F888
:1076D000603017F03FFB38B10B4A40F2511103B054
:1076E000BDE8304012F0D5BB03B030BD482E0020BD
:1076F000442E002000100140FAFE0300A7FD030005
:10770000B02E0020580004004FFD0300E42E00209E
:1077100007B50378232B1BD10F4B1B685B040DD5DA
:107720000E4B1B68032B09DD0D4B0E4AD3F80435B5
:107730000D4900920420CF2205F0A8FE0322C821A3
:107740000F2000F0DBFB03B05DF804EB09F088B913
:1077500003B05DF804FB00BF482E0020442E00203B
:10776000001001401AFF0300A7FD030010B50446F6
:1077700000210F2004EB840400F0AAFB62003221F8
:10778000BDE81040032000F0B9BB00F0FDBB0000D5
:107790001FB503A80DF07CFC0B4B1B685B0410D5D8
:1077A0000A4B1B68032B0CDD094BBDF80C20D3F8EA
:1077B00004350192074A009207498522042005F00A
:1077C00065FE05B05DF804FB482E0020442E002025
:1077D0000010014033FF0300A7FD0300134B1B689B
:1077E0005B0407B50DD5124B1B68032B09DD114B4C
:1077F000114AD3F804351149009204208A2205F079
:1078000045FE00F0B1FD00F0D3FDFFF7C1FF00F031
:10781000BBFB00210F2000F05BFB0422C8210F20DE
:1078200003B05DF804EB00F069BB00BF482E0020F8
:10783000442E0020001001404AFF0300A7FD030072
:107840000A4B1B685B0407B50DD5094B1B68012B60
:1078500009DD084B084AD3F8043508490092022094
:107860009C2205F013FE03B05DF804FB482E0020B7
:10787000442E00200010014064FF0300A7FD030018
:1078800007B53138032804D803B05DF804EBFFF7DF
:1078900023BE0B4B1B685B040ED50A4B1B68032BE6
:1078A0000ADD094B094AD3F804350949009204203E
:1078B0004FF4A17205F0EAFD03B05DF804FB00BFD0
:1078C000482E0020442E00200010014064000400D7
:1078D000A7FD030000B55B4E5B4A46F201008DB088
:1078E000042105F0B9FD336858040ED5574B1B68C9
:1078F000032B0ADD564B574AD3F8043556490092FC
:10790000042040F2711205F0C1FD17F043FD20B1D3
:10791000524A40F2731112F0BCFA00F045FB504895
:1079200000F070FB20B14D4A40F2771112F0B1FA2D
:1079300000F0F0FC00F018FD00F03AFD00212022DC
:1079400003A817F087FF474B039306238DF81430E5
:10795000454B07934549464B0B9303A809F034F870
:10796000C8B10B2865D13368590414D5374D2B683D
:10797000032B10DD364C3F4AD4F8043536490092CB
:1079800004204FF4B27205F081FD33685A0402D529
:107990002B68032B42DC3848642100F0D9F9334BC3
:1079A0001B78002B4BD1354D0FCD03AC0FC495E8A0
:1079B000070084E8070003A800F06EF920B1274A09
:1079C00040F2951112F065FA00F0FAFD00F04EFB5E
:1079D00008F070FF20B1214A4FF4CF7112F059FA2C
:1079E00033685B040ED5194B1B68032B0ADD184B5B
:1079F000234AD3F804351849009204204FF4D0727A
:107A000005F044FD00210F2000F062FA0222C82197
:107A10000F2000F073FAFFF7C3FCFCE7194AD4F813
:107A200004350D490092042040F2651205F02EFD48
:107A3000B1E70A4A4FF4B57112F02BFAABE7FFF742
:107A4000A7FEC1E7482E00202DD40200442E0020BE
:107A50000010014083FF0300A7FD03004FFD03005A
:107A6000D97402000100000711770200182F0020CE
:107A70007D760200B2FF0300817802003C00040022
:107A8000640004000000040069DF704703781F2BC6
:107A900002BF024B01221A70704700BF1D2F002049
:107AA00030B5324D2A7887B01AB1012803D00328A7
:107AB00052D007B030BD002401A9019411F056FE48
:107AC00008B112F0D9F940F21113CDE90344019A3B
:107AD000ADF80C3003A911234120ADF81440ADF8E6
:107AE0001630FFF7D1FF08B112F0C6F901A811F066
:107AF0008FFE08B112F0C0F91D4C236803B19847FE
:107B0000012302A90DF1020002930DF059FE08B104
:107B100012F0B2F9BDF802000DF0CEFB0DF101013B
:107B20000DF0DCFC08B112F0A7F909F0F9FE9DF8A0
:107B3000011000200AF08EFA10B1784600F008FD1E
:107B400003F0F2FB08B112F097F900232B70636881
:107B5000002BAED09847ACE711F0C6FE0028A8D0A5
:107B600007B0BDE8304012F087B900BF1C2F0020DD
:107B7000202F002008B503781C2B0CD1064B1B7856
:107B80004BB111F0EFFE08B112F076F9BDE80840F4
:107B9000024803F02BBC08BD1C2F0020002E002043
:107BA000094B1B7810B56BB90849094812F00AFD5A
:107BB00048B908490246BDE8104049690648032310
:107BC00012F019BD082010BD1D2F00203C2F0020F1
:107BD000A8320020202F00207431002010B5037837
:107BE000023B082B4AD8DFE803F01E05124949384A
:107BF00049493F00224B9B68002B3FD0007A002868
:107C00003CD0204A0121BDE81040117018471C4BA0
:107C1000DB68002B32D01B4A117879B30021BDE814
:107C2000104011701847184B1A784AB9144B1B6949
:107C300013B114490A709847BDE81040FFF7B0BF70
:107C4000124B134801221A7003F0CEFB03F0B4FB71
:107C5000A0B1BDE8104012F00FB9094B0D48996969
:107C6000102212F018FDF3E7D0E9021008F030FE00
:107C700008B112F001F9044B01221A7010BD00BFC7
:107C8000202F00201A2F00201B2F00201C2F002047
:107C9000002E00207431002070B51D4A1D4E516821
:107CA000044686B0106803AB03C31189927A198029
:107CB0009A700FCC35460FC594E8070085E8070099
:107CC000B3691BB3144B0093144A1549154803AB11
:107CD00012F044FCC0B9144813F0BCFF014611482F
:107CE00012F05CFC80B9114814F00EF960B90F482D
:107CF00014F040F901460B4812F050FC20B90C4832
:107D000003F072FBFFF74CFF06B070BD0720FBE7E6
:107D10007C020400202F0020DD7B02003C2F00208D
:107D2000A8320020743100205C2F00202431002074
:107D30000C2E002010B5054C236833B10FF0A2FEC5
:107D4000002802DB23689847F8E710BDE8320020DE
:107D5000144B154A10B50C4618600121134817F052
:107D600079FB18B1124A4A2112F093F841F270736C
:107D7000E003610C984271F1000310D34FF47A7262
:107D8000002317F0FFFB01460A48002217F074FB9E
:107D900038B1BDE81040064A4B2112F07AB80521EF
:107DA000F2E710BDE8320020357D0200E002040059
:107DB00087020400EC3200202DE9F843104FDFF871
:107DC0004880DFF848900546002417F8013BAB4295
:107DD00010D1D8F8006003F079FD331A48BF831B37
:107DE0004B4507D903F072FD064BC8F800001B682D
:107DF000204698470134042CE7D1BDE8F88300BF42
:107E0000EC0204003433002038330020801A0600CE
:107E10001F288ABF064B4FF0A04300F01F00D3F885
:107E2000043523FA00F0C04300F00100704700BFA2
:107E30000003005009B111F018B811F009B80000A2
:107E40002DE9F8431D4D286808B912F015F81C4EAD
:107E5000DFF87890376800244FF0010808FA04F33F
:107E60003B420AD014F809201046FFF7D1FF80F0FA
:107E70000100C1B21046FFF7DDFF0134042CEDD143
:107E80002C68013C2C60B4B90E480F4FDFF83C80E1
:107E900017F03EFB0125326805FA04F3134207D0C0
:107EA000396818F80400E14001F00101FFF7C2FF52
:107EB0000134042CEFD1BDE8F88300BF0C3300205F
:107EC00010330020143300203C330020F002040063
:107ED0002DE9F041084F054688460024012606FAA0
:107EE00004F32B4203D0385D4146FFF7A3FF013472
:107EF000042CF4D1BDE8F081F00204002DE9F0413A
:107F000005460C46A2B3132932D91A4E1A4BDFF894
:107F1000748030605200013A00211A6001270A463D
:107F200007FA02F32B4205D018F80200FFF770FFA2
:107F3000904001430132042AF2D1104B0025196010
:107F40004FF400474FF4FA7029464FF47A72002339
:107F5000E4FB070117F016FB2A460146084817F014
:107F60008BFA28B930680121BDE8F041FFF7B0BFB6
:107F7000BDE8F081103300200C3300203C3300209A
:107F800014330020F002040008B5054817F0C0FAC9
:107F9000044B00211868BDE80840FFF799BF00BFF7
:107FA000143300201033002037B510F0D7FE20B96D
:107FB00010F090FE08B111F05FFF002401230E4D78
:107FC000ADF804408DF806408DF8053015F8010B2A
:107FD00001A910F0CDFE08B111F04EFF0134042CC0
:107FE000F4D1064A0648012117F034FA08B111F01D
:107FF00043FF03B030BD00BFF0020400417E020029
:10800000E8020400F7B538B3144B186010F0A6FE70
:1080100020B910F05FFE08B111F02EFF104B114E89
:108020001A88114F9B78ADF804208DF80630002493
:1080300016F8015B3A4601A9284610F023FF08B163
:1080400011F01AFF01212846013410F09BFF042C87
:10805000EED1002003B0F0BD0E20FBE7343300204A
:10806000E4020400EC020400B97D0200F0B504460D
:10807000CFB038B12D4E33685A0403D52C4F3B682E
:10808000032B01DC4FB0F0BD2A4B1D680DAB411E28
:1080900000F10F0C184611F8012F4FEA121E02F0E2
:1080A0000F0215F80EE083F800E0AA5C5A706145F3
:1080B00003F10203EFD100231F4D80F820301F4A47
:1080C000D5F8043501921E4A029000921D494222C1
:1080D000042005F0DBF933685B04D3D53B68032B40
:1080E000D0DDE27B2168D5F804350B92A27B0A92A1
:1080F000627B0992227B0892E27A0792A27A069228
:10810000627A0592227A0492E28852BA92B203927B
:10811000A28852BA09BA92B2CDE901120A4A009273
:1081200008494322042005F0B1F9ABE7482E0020AE
:10813000442E00204C2E002000100140500304006B
:10814000620304003F0304006A03040072DF704707
:1081500073DF704774DF70472DE9F0470F463049F1
:10816000304D0B78304C064630489046C3EB4312F6
:10817000154401330244A2B04FF0000A03F001039A
:10818000A2601F220B70C4F804A0C4F80CA0A28047
:10819000A28151463C2204A8256017F05BFB062310
:1081A00001AA8DF813300E9201233C22514604F1AE
:1081B000040913A88DF80230ADF820308DF83C305A
:1081C000ADF80060CDF824D0ADF80460ADF80880BB
:1081D000039717F03FFB02234A46294604A88DF86F
:1081E0004C3011F08FF808B111F046FE104AA1682A
:1081F00013A811F087F808B111F03EFE0D4A0A49A4
:108200000D48FFF7A3FF082804D107490A480022B8
:10821000FFF79CFF08B111F02FFE22B0BDE8F087F8
:108220004033002041330020803300209033002071
:108230008C3300201C2E0020182E0020B0F5202F9B
:108240000AD20A23B0FBF3F310B1012B38BF01238C
:10825000034A9381916070474FF6FF73F5E700BFC3
:108260001C2E002008B5064B01211878FFF770FF7F
:1082700008B111F001FEBDE80840002003F074BE13
:10828000182E002008B5054B1878FFF763FF18B1CA
:10829000BDE8084011F0F0BD08BD00BF182E002059
:1082A00076DF70477ADF70477CDF704769DF7047A1
:1082B00011F0E2BD03F09CB807B503784BB94088D4
:1082C0003B21FFF7EDFFC0B103B05DF804EB11F007
:1082D000D3BD012B11D10A4B1B685B040DD5094B93
:1082E0001B68032B09DD084B084AD3F804350849FD
:1082F00000920420682205F0C9F803B05DF804FB81
:10830000482E0020442E0020001001400E040400DE
:10831000F50304001FB511F0E7FA08B111F0ACFD48
:10832000002469460120009411F020FA08B111F0F0
:10833000A3FD40F21113CDE90144009AADF80430D9
:1083400001A911234120ADF80C40ADF80E30FFF724
:10835000ADFF08B111F090FD684611F059FA08B16F
:1083600011F08AFD04B010BD1FB511220F498DF820
:10837000042001A8FFF798FF08B111F07DFD00234C
:10838000ADF80C307823ADF80830C823ADF80A30CA
:1083900002A84FF4C873ADF80E30FFF783FF08B1A1
:1083A00011F06AFD05B05DF804FB00BF3A0404005B
:1083B00000B58BB078220023ADF80420C822CDE9A7
:1083C0000633ADF80830ADF8062001AB4FF4C872A3
:1083D000ADF80A20039340F6CD424FF48033CDE947
:1083E000042303238DF81830064B089303A8064B8B
:1083F000099311F0FDFB08B111F03EFD0BB05DF8E3
:1084000004FB00BFB9820200B1820200062070475F
:1084100030B5454B44F201051B68A84287B00446BD
:1084200003F4804365D017D801282ED041F2010013
:1084300084424DD0002B38D03C4B1B68002B34DDE0
:108440003B4B3C4AD3F80435019100923A497B22D8
:10845000012005F01BF828E044F202008442E9D133
:108460001BB3324B1B68002B1FDD314B1068D3F858
:10847000043503905268CDE90112304A00922E492A
:108480006922012005F002F80FE073B1274B1B6849
:10849000002B0ADD264BD3F80435CDE90112284A1A
:1084A00025490092602204F0F1FF4FF0A0434FF401
:1084B000F032C3F81825C3F80C25EFF3108372B619
:1084C0004DF6AD6C1F4A1378002B2AD107B030BD92
:1084D000002BEAD0154B1B68002BE6DD144BD3F8BC
:1084E0000435CDE90112184A009213496322012094
:1084F000D9E7002BD9D00D4B1B68002BD5DD0C4BD9
:108500001068D3F8043504905068CDE902109268E1
:1085100001920E4A009208497322012004F0B6FF2E
:10852000C3E730BFCFE700BF482E0020442E002015
:10853000001001402405040097040400E404040032
:10854000A8040400342E0020C20404000305040023
:1085500007B50023014600936A46044B019344F299
:108560000200FFF755FF03B05DF804FB6F0804003D
:10857000044B00F1100250F8041B43F8041B904216
:10858000F9D17047CE33002010B54FF0805202F180
:10859000600403CC094BA4325960186003CA9A796D
:1085A000986002F00F0242F040029A711A7AD96084
:1085B00002F03F0262F07F021A7210BDCE3300203B
:1085C00000487047CE33002000220649134601328E
:1085D000202A4B804B6001F8083BF8D1024A136017
:1085E000704700BFE0330020E03400200C4BF0B5B2
:1085F0001B680C4D044620227BB1013B15F833006B
:1086000050B105EBC3067788A74202D176688E4247
:1086100002D0013AF0D11046F0BD1F23EEE700BFB3
:10862000E0340020E0330020094A30B51368094CDB
:1086300004EBC3051F2B69604FF0010104F83310F0
:10864000194408BF0023688014BF1160136030BD57
:10865000E0340020E0330020C0F30C038B420844D8
:1086600038BFA0F50050C01A7047C27D0B7830B5F6
:108670002AB3C27823F07F0302F07F0213430B700A
:108680000B78027803F07F0343EAC2130B70AAB1A0
:108690008378C588083B5C425C41C5F3861343EA96
:1086A000C4134B70047AC4F3C10242EA85028A7093
:1086B000437A03F01F0343EA4413CB7030BDC27802
:1086C00023F0400343EA8213027923F03F0302F0D0
:1086D0003F02D3E70D4B0E4AF0B51E6800218E42D3
:1086E00011D05568002309E0146804EBC30714F89F
:1086F0003340844201D17868F0BD01339D42F3D10B
:1087000001310832EBE70020F6E700BF6C350020AE
:108710007035002000B58DB048B9991C07D00121F3
:1087200001A8CDE902328DF8041001F03FF9034BA6
:1087300018680DB05DF804EB03F00EBE783500202C
:10874000037810B5044613B97846FFF701FF607A45
:10875000431C01209840013810BD2DE9F0410E4620
:108760008EB015461C46074610B97846FFF7F0FE56
:1087700016B97846FFF7ECFE636AA27802330593D8
:10878000E378A2F10800002B14BF012102210DF1B2
:10879000040842424241434604F10C0003F027FF23
:1087A000A3788DF83430237BADF82050022B16FAD5
:1087B00085F5CDE906870B960C950FD1236913B982
:1087C0007846FFF7C5FE23690993102305A8ADF885
:1087D000283003F008FF0EB0BDE8F0810023F5E774
:1087E0002DE9F04F824689B00D4609B100220A609A
:1087F0000AF10C039AF85040019301274FF0000B47
:108800009AF80900A04203D2002009B0BDE8F08F19
:10881000DAF84C1007FA04F20A4264D19AF81720E9
:10882000019B8AF80840002A0CBF0C2608268442C7
:108830009AF80020029306FB04F908BFBAF84A60D0
:108840008DF818B008BFA6EB0906002A14BF4FF038
:1088500004084FF0010806EB08020492DAF8282019
:10886000039202A8DAF82C20059204F05CF80028A4
:10887000CBD1079A904454B99AF853203AB9DAF810
:1088800018208AF85370C2F30C02AAF806209AF84E
:1088900017209AB99AF8522082B914B17846FFF796
:1088A00057FEBAF84A109AF802208A1ADAF86C10C1
:1088B00053460846FFF751FF8AF852700799504611
:1088C000FFF7D3FEDAF86C1032464944404616F002
:1088D00098FF02A804F048F815B12A6801322A600E
:1088E000621C8AF850200134E4B289E710B50446CE
:1088F000808A02F0E5FB01281CD1237BD3B194F9D7
:108900001620002A18DBE27D5AB1022B12D094F90E
:108910000330002B10DBA378002B0CBF00200720B6
:1089200010BDE2780AB9012B06D1237833B9A378B8
:10893000042BF2E71020F3E70720F1E70020EFE730
:10894000B2F5C07F2DE9F84F83468A46904602D99A
:108950007846FFF7FDFD284B0027994693F84860BD
:108960005EB9404607F087FF702404FB0794E06679
:1089700048B900242046BDE8F88F0137042F03F1E1
:108980007003EBD1F5E7DC46BCE80F0025460FC5C8
:10899000BCE80F000FC59CE80F00BAF1010F85E895
:1089A0000F00E664A4F84A801BD1144BA4F852606F
:1089B0001B7D84F8513084F85060DBF82830636503
:1089C0006FF00103A3620E4BA4F85860A363246404
:1089D000012002F0A9F8702303FB079787F848A04D
:1089E000C8E76FF00103A362064BA36584F86860D3
:1089F000054B2466EAE700BF943500207C35002053
:108A0000418B020085940200398B020010B50446A8
:108A1000C06E07F032FF04F1300002F00DFF94F851
:108A20004830022B03D104F1500002F005FF20462C
:108A30007022002116F00EFFBDE81040002002F069
:108A400073B810B590F84830012B8CB0044602D0B2
:108A50007846FFF77DFD01238DF80430636D0293A6
:108A600002F034FF039001A800F0A0FF2046FFF7BA
:108A7000CDFF0CB010BD0000F0B50D4691B004461E
:108A800010B97846FFF764FD94F84830022B19D1ED
:108A9000E188A069FFF7E0FDE3692049A78A1A0A87
:108AA0001B0618180B6803F101060E601C4903F041
:108AB00007034FEA031642F1000201EB0313C3E977
:108AC00002028F532C22002105A8666D16F0C2FE0B
:108AD000102305A88DF8143006968DF81C5000F070
:108AE00065FF2046FFF792FF0E4B1B685B0712D510
:108AF0000D4B1B68032B0EDD0C4B0D49D3F80435D1
:108B0000029594F8482001920A4A0092042040F20B
:108B1000F31204F0BBFC11B0F0BD00BF68350020BB
:108B2000E8340020482E0020442E00200010014090
:108B3000820504008E05040008460021FFF79CBF53
:108B400010B591F84830012B0C4602D07846FFF75B
:108B5000FFFC94F851305BB1013B84F851300023A5
:108B600084F85030084BBDE81040186803F0F4BB9F
:108B7000217B0129204603D1BDE81040FFF77CBFCF
:108B8000BDE81040FFF75DBF783500201FB500231A
:108B90000A468DF80F30E0B1023008600DF10F0188
:108BA000104603F022FD9DF80F3093B10B4B1B686C
:108BB0005B070ED50A4B1B68032B0ADD094B0A4ADB
:108BC000D3F8043509490092042040F2154204F01C
:108BD0005DFC9DF80F0005B05DF804FB482E0020F9
:108BE000442E002000100140B1050400820504005D
:108BF00070B50446D4E906122378808A8CB0E3B1BC
:108C0000E38805F015FD0546A0B12C22002101A83E
:108C1000A68AE46916F01EFE0F238DF804304FF08B
:108C2000000364F3000301A8ADF808608DF80A3072
:108C300000F0BCFE28460CB070BD05F0F5FCE2E784
:108C40002DE9F04799461378D2F818A0F4B00646FB
:108C50000D46144623B1D1885046FFF7FDFC9061C4
:108C6000E378A278002BA2F1080005AF14BF012120
:108C7000022104F10C0842423B464241404603F0C7
:108C8000B6FCA3788DF84430ADB2E81A002380B268
:108C9000ADF83830E378C4F818A0CDE90A76064478
:108CA00014AFADF8300010960F97002B6ED04FF038
:108CB000100A03AE237B022B04BF23690D934FF0F0
:108CC0000003C6E9003308BFADF838A06362206A2C
:108CD000217904AB32460DF097F83068002838D07F
:108CE00009A9FFF753FF78BB706878B309A9FFF7AC
:108CF0004DFF58B3012356F8233063622046FFF737
:108D000077FFF0B9A1788DF824006D1A0D9098E8DE
:108D10000300A38AADF8323001220EAB0A97ADF8FA
:108D20002C508DF8302083E80300A37D8DF8483067
:108D3000236A109309A8636A1193CDF84C9000F050
:108D400035FE74B0BDE8F0870023D4E73368002B0C
:108D5000BDD1237B022B05D1E08941460DF044F9BA
:108D60000028A7D1184B1B685B07EAD5174B1B6877
:108D7000052BE6DD164B174AD3F804351649009249
:108D8000062040F2037204F081FBDAE7227B012A1D
:108D9000E8D12646E089B4F814A046F8243F3146CD
:108DA0000DF0A6F8606A09A9FFF7F0FE0028A5D12A
:108DB0006062314650460DF09BF8606A09A9FFF7E2
:108DC000E5FE0028CED099E7482E0020442E002052
:108DD00000100140C40504008205040038B590F875
:108DE0004830012B044602D07846FFF7B1FB02F071
:108DF0006DFD237B074A012B05BFD2E90335A17D19
:108E0000D16805FB0131014404F13000BDE8384070
:108E100002F02ABD7C350020F0B5C37D164682786D
:108E2000002B324414BF4FF480734FF4C07393424D
:108E3000C7B00F4669D3394B042593F84810012970
:108E400007D19C8A818A8C4203D1DC89C1898C42FA
:108E50005DD0013D03F17003EFD10121FFF770FDFB
:108E60000446002855D032463946C06E16F0C9FC7B
:108E700004A920460495FFF7B3FC30F0040506462C
:108E80003ED1049B13B12046FFF7A8FF244B1B687B
:108E900013F004033FD0234B1B68032B1EDDB4F8F3
:108EA0004A00214B802805AA1F6828BF8020002384
:108EB0001646834202F1020213D1002206F8132063
:108EC0001A4B1B4AD3F8043501921A4A00921A49E8
:108ED00002964FF4AC62042004F0D8FA284647B05A
:108EE000F0BDE16EC95C4FEA111C01F00F0117F8EB
:108EF0000CC002F802CC795C02F8011C0133D8E7FF
:108F00002046FFF783FD3546E8E70925E6E7082513
:108F1000E4E70425E2E71D46E0E700BF94350020C2
:108F2000482E0020442E00204C2E0020001001402E
:108F3000ED05040062030400820504002DE9F04100
:108F400092F801C01CF0010F8EB005460E46144683
:108F50001F4662D092F817C0BCF1000F00F0B2803B
:108F60001046FFF745FE002857D194F80380B8F16A
:108F7000000F40F08780062E4FD12F786B78544A2F
:108F8000B90101F4FE5141EA9301134692F8486099
:108F9000012E2AD1B2F814C0E689B44525D1D6886D
:108FA0008E4222D1B2F858C0A68ABCF1000F01D07F
:108FB000B4451AD117F0800FD5F802104FF07002A7
:108FC0002ED002FB0032A2F85860702404FB00345B
:108FD00009BAE56C0D43E56400293CD10321204624
:108FE0000EB0BDE8F041FFF747BD0130042802F1A3
:108FF0007002CBD1374B1B685B070ED5364B1B6815
:10900000012B0ADD354B364AD3F804353549009239
:10901000022040F2796204F039FA0EB0BDE8F08126
:1090200002FB0032D289B242CFD02A4B1B685907CB
:10903000F3D5294B1B68012BEFDD284B2949D3F8C9
:109040000435CDE90126284A0092022040F27D62D3
:1090500004F01CFAE1E72046FFF772FB854205D1D8
:1090600020460EB0BDE8F041FFF7EBBC002184F8CC
:1090700050102046FFF7B4FB20460EB0BDE8F0418B
:10908000FFF7ACBE4046FFF725FB02460028C4D0E0
:10909000D4E90301236A0B93A38AADF8223009AB0C
:1090A00083E80300A37D8DF8303023788DF82030DD
:1090B000E36A8DF81480CDE906560D93394605A86C
:1090C0009047AAE70EB0BDE8F041FFF7B9BD00BF79
:1090D00094350020482E0020442E0020001001402E
:1090E000FB0504008205040029060400F0B589B0E0
:1090F00004460E460192FFF7F9FB0546002832D1DF
:109100002378019A33B13146204609B0BDE8F040DA
:10911000FFF782BEE17DA37801920029134414BFBA
:109120000B210F218B4227D80133049304F10C0348
:109130000293A36A03938DF81800E36A059302A8CB
:1091400003F0F1FB054670B907992046FFF78DFA49
:10915000E37D019A4F1C4BB13146384616F051FB66
:1091600002A803F001FC284609B0F0BD23463946A9
:109170003046FFF7F2FAF3E70925F4E710B54FF4AC
:10918000E0720021134816F065FB002405F01EFA7A
:10919000114B12481C602146802216F05BFB104BDD
:1091A0001049114A11489C75C3E9001210494CF24C
:1091B0005032C3E902211A6140F604029A8203F098
:1091C000ADF80C4B18600C4B0C481C60BDE810400F
:1091D00005F0FCBB9435002068350020E834002001
:1091E0007C35002080969800F0490200DD9802004E
:1091F00020A10700783500206C350020158702007B
:1092000005F004BA30B504468DB000285FD003697C
:10921000002B5CD0C369002B59D08569002D56D036
:109220005A788DF804201A780993838A82F0010213
:109230000B2B8DF80320027B09D90121022A8DF81E
:10924000001001D1234A927D5AB904220AE0C17A62
:109250000029F2D1012A0CBF012200228DF8002042
:1092600031D1082213448DF802200B330C22B3FBBA
:10927000F2F3013B8DF8093000238DF8083094E8B3
:10928000030000238DF8173003AB83E80300238924
:10929000ADF81430A37A8DF81630236A0A9320466D
:1092A000DF2308950B930CF043FF28B12378012BA3
:1092B00014BFFF2320230B93A28A21696846FFF77E
:1092C00015FF0DB030BD04238DF80230D7E70E2016
:1092D000F7E700BF7C35002070B50D4690B004461E
:1092E00000284CD04368002B49D08269002A46D020
:1092F00000230D93836806788DF813600B2B94BFC1
:10930000017B012101F001008DF8100000208DF893
:10931000120031B10733DB08013B8DF819308DF8AD
:109320001800D4E9040101238DF8273007AB83E846
:109330000300E389ADF82430237F8DF82630236ABB
:109340000C92CDE90E530F4B1B685B0710D50E4BEB
:109350001B68062B0CDD0D4B0D49D3F80435CDE908
:1093600001620C4A0092072040F6050204F08EF8D4
:10937000D4E9011204A8FFF7B9FE10B070BD0E20A9
:10938000FBE700BF482E0020442E002000100140C3
:10939000820504006A06040030B5037B012B91B0FE
:1093A00004460D465FD1314B1B685B070ED5304B31
:1093B0001B68032B0ADD2F4B2F4AD3F804352F49A6
:1093C0000092042040F2632204F060F8E3888DF8F4
:1093D000155099008DF81110290E8DF81210290CD6
:1093E0008DF81310290A8DF81410617800220229D3
:1093F0000CBF01211146C3F3861343EAC1138DF854
:1094000010304FF0060309934FF001038DF82C3014
:10941000A38AADF82E3004AB0893236A0D93E36A58
:10942000CDF816208DF81A200C928DF81C208DF89E
:1094300028200F9315D10DF10E0103A80CF068FE42
:10944000BDF80C30ADF82A30A37D0BB10C4B5B7D21
:109450008DF838306FF0010107A8FFF73DFF11B01C
:1094600030BDE389EEE70020F9E700BF482E002079
:10947000442E0020001001409506040082050400DF
:109480007C35002010B591F84830022B0C4602D0F4
:109490007846FFF75DF8022384F8683094F8483086
:1094A000022B06D1E16C2046FFF776FF08B984F85D
:1094B000680010BD2DE9F0470F469CB01446984651
:1094C0000646002800F00782002A00F0048221B935
:1094D000092528461CB0BDE8F087134613AD02F1FC
:1094E000180C186859682A4603C2083363451546A4
:1094F000F7D1002396F900108DF841303378002918
:109500004FEAD3128DF8402024DA032FE0D9042249
:109510009DF8570000B303F07F038DF8433000231C
:1095200099428DF8423030DA7278B378920102F4C1
:10953000FE5242EA9302ADF84620DB00F27803F0D7
:10954000180343EA521302F01F028DF848308DF8D9
:1095500049201AE00122DBE7C3F38010002903F061
:109560003F038DF843008DF8443008DA96F9013056
:10957000002BB4BF082304238DF84230D4E7042322
:109580001A4497428DF84230A2D30023199398F8D9
:109590000030032B02D97846FEF7DAFF98F8002056
:1095A000B94B10A853F822301B93FFF79FF90546DB
:1095B00000288ED1CDE9030003A960880CF014FDCA
:1095C00028B19DF8413043F001038DF84130D4E9D2
:1095D0000312208905F066F800284BD19DF8413030
:1095E000002B3FF476AFD80744BF049B14939DF83B
:1095F0004030002B00F06881BDF846101698FFF748
:109600002BF8179BBDF854C04FEA13291B061A18F4
:109610009E4849F1000908240388634506D1D0E932
:109620000213994508BF8A423FF453AF013C00F151
:109630001000F1D1964B20461C4693F848100229A1
:1096400021D1998A61451ED1702303FB0044E18832
:10965000A069FFF701F8E1690B0A0906081843F150
:109660000003904273EB090134D205212046FFF735
:1096700003FA0DE09DF8413003F0FE038DF8413010
:10968000002BABD125E70130042803F17003D4D1BE
:10969000DDE91612BDF84630BDF8540005F02AF891
:1096A000002800F0AE80DDE91612BDF84630BDF8A6
:1096B000540005F04FF800283FF40BAF10A8FFF757
:1096C0003FF8014610A8FFF767FE10A8FFF790FAD1
:1096D0000025FEE6824279EB0303FFF4FAAE6D4B00
:1096E0001B685B0711D56C4B1B68032B0DDD6B4BA7
:1096F0009DF84820D3F804350192694A00926949DF
:1097000040F2A332042003F0C1FE94F84830022B4B
:1097100002D07846FEF71CFFDFF89091D9F800A040
:1097200002F0D4F80AEB000104F1300002F09CF8DA
:10973000237B012B1AD194F86830BBB994F84830D8
:10974000022B02D07846FEF703FFD9E9011299F8FF
:10975000153002FB031902F0B9F800EB090104F11E
:10976000500002F081F8012384F868309DF8481019
:10977000E36C01228A4013EA020A7FF4AAAE134383
:10978000E3649DF85730627A002B14BF4FF008094C
:109790004FF00C098A42A7F1040709FB01F940F0D8
:1097A000878009EB0703A4F84A30A269169B9A4206
:1097B0000BD20DF14C0EBEE80F0004F10C0CACE81E
:1097C0000F009EE803008CE80300E06E311D3A466E
:1097D000484416F016F82046E66CFEF7B1FF8642C4
:1097E0007FF477AEE16C2046FFF7D6FDE06EB4F86B
:1097F0004A1043462246FFF7A1FB2046FFF706F931
:1098000066E79DF857209DF84930002A14BF0822CA
:109810000C2203FB022214BF4FF480734FF4C07379
:109820009A4216D91B4B1B6859077FF552AE1A4B4B
:109830001B68002B7FF74DAE184B1A49D3F804353F
:109840000192194A0092012040F27F3203F01EFE7D
:109850003EE7022110A8FFF773F8044600287FF4C2
:109860003EAF014610A8FFF797FD2C22214605A820
:1098700015F0F0FF10238DF8143005A802238DF8A1
:109880001C3000F093F823E7CC060400E8340020F5
:1098900094350020482E0020442E00200010014066
:1098A000B906040082050400A50604007C350020EA
:1098B000002B14BF08230C239F423FF476AF0421F2
:1098C0002046FFF7D9F803E7434610AA791E701C1B
:1098D000FFF734FBFDE50E25FBE500BFF7B5184C9F
:1098E00000262546374695F84830012B0BD101A9B3
:1098F00028460197FEF774FF042801D0019B13B19D
:109900002846FFF76BFA0136042E05F17005EAD1FF
:10991000002594F84830022B0AD194F86830022BC5
:1099200006D1E16C2046FFF737FD08B984F86800DE
:109930000135042D04F17004EBD1012003B0F0BD1A
:10994000943500202DE9F8430F46064618B3DFF89A
:109950005880D8F80040E4B9254600F10409BD421A
:1099600008D1104BC3E900650123C8F80030204638
:10997000BDE8F88359F835306BB116F9353016F873
:109980003500002B09DB50B1FEF7A4FE38B90135D4
:10999000E5E70424EBE70E24E9E70B24E7E70F24CF
:1099A000E5E700BF703500206C350020F8B50546AE
:1099B00010B97846FEF7CCFD104F3C6884B1104ECC
:1099C0000123337023791BB954F8043C2846984787
:1099D0002468002CF6D13378022B02D00023337098
:1099E000F8BD3968054C0029F8D00B790D6813B122
:1099F000204603F0D2FC2946F5E700BF5837002087
:109A00005437002010B5044610B97846FEF7A0FD83
:109A100000232372211D0248BDE8104003F09CBCC6
:109A20005837002010B5044610B97846FEF790FD6F
:109A3000074A1378013B012B04D80223137001233A
:109A4000237210BD211D0348BDE8104003F0A5BCE2
:109A500054370020583700200B888268D25A0732CA
:109A600022F00302134402889BB2043A934288BF57
:109A700000230B80704713B58368C91AADF8061030
:109A80000DF10601FFF7E8FFBDF8063080681844C5
:109A900002B010BD70B5064615460C4611B97846A1
:109AA000FEF756FD16B97846FEF752FDB4F1005F99
:109AB00024D94FF08053D3F80C3103F50023B4EBD5
:109AC000832F1ED26B1E2344B3F1005F26D94FF0C3
:109AD0008052D2F80C2102F50022B3EB822F20D263
:109AE000042D02D87846FEF733FD002335807380BD
:109AF000B380B460043DA370258070BDB4F5000F41
:109B000008D94FF08053D3F80C3103F50053B4EB70
:109B1000832FD7D37846FEF71BFDD3E7B3F5000FAD
:109B200008D94FF08052D2F80C2102F50052B3EB65
:109B3000822FD5D37846FEF70BFDD1E738B5044622
:109B400010B97846FEF704FD6288A36813449B7839
:109B5000012B02D17846FEF7FBFCEFF3108572B6BD
:109B6000A268A18811448B78032B0AD12046FFF705
:109B700082FFA368C31A63800023837005B962B6AD
:109B800038BD002393706380A380F7E7F8B50E46D5
:109B90001546044610B97846FEF7DAFC16B9784641
:109BA000FEF7D6FC6288A36813449B78012B02D190
:109BB0007846FEF7CDFC002D37D02388043B9BB2BE
:109BC0009D4232D8EFF3108772B66288A388E81DF1
:109BD00020F003009A4280B204D29B1A984210DD12
:109BE000042016E018D92188891A814209D29842A6
:109BF000F6D8032981BFA3689B1804229A7000231A
:109C000063806288A1688B188D5201229A700020AF
:109C1000336007B962B6F8BDA26813449B78002B85
:109C2000DED193706380A380EBE70920F3E7F8B5FA
:109C30000D461646044610B97846FEF789FC15B95C
:109C40007846FEF785FCAB78012B02D07846FEF70C
:109C50007FFC2B88B34202D27846FEF779FC16B916
:109C60007846FEF775FCEFF3108772B60223AB70EF
:109C7000E1182E802046FFF7EFFE6288A38893420A
:109C80001FBFA3689B1800229A7007B962B6F8BD7F
:109C900070B50D46044610B97846FEF759FC15B963
:109CA0007846FEF755FCEFF3108672B6A288A368DB
:109CB00013449A78042A06D1211D2046FFF7CCFED2
:109CC000A288A36813449A78022A05D0032A08D0F0
:109CD000052006B962B670BD03229A702B60002081
:109CE000F7E77846FEF734FCF9E738B5044610B9D3
:109CF0007846FEF72DFCEFF3108572B6A088A168B8
:109D000001448B78042B03D12046FFF7B4FE0146B3
:109D10008878831E5842584105B962B638BD38B5B7
:109D2000044610B97846FEF713FCEFF3108572B6BF
:109D3000A088A16801448878C31E012B05D9831E21
:109D40005842584105B962B638BD2046FFF793FE28
:109D50000146F0E7F8B50D46044610B97846FEF71F
:109D6000F7FB15B97846FEF7F3FBEFF3108672B6F2
:109D7000AB78012B19D0032B22D1A288A3681344FE
:109D80009D4202D07846FEF7E3FB0027AF70211D0D
:109D90002046FFF761FEA288A36813449B78042B3A
:109DA00000D1A78006B962B6F8BD6288A3681344E3
:109DB0009D4202D07846FEF7CBFB0023AB70F1E763
:109DC0007846FEF7C5FBEDE710B5EFF3108472B6E9
:109DD0008288816811448B78042B02D1FFF74BFEF7
:109DE00001468878B0FA80F0400904B962B610BD27
:109DF000037942799B1A03F57F2303F6FF7300EB87
:109E000003307047024B00221A769A600220704796
:109E10005C37002010B5054884681C22002115F02D
:109E200019FD2046BDE8104004F0B2B85C370020B0
:109E300070B5194CE36813B97846FEF789FB237EA9
:109E400013B17846FEF784FB63680A2B02D9784683
:109E5000FEF77EFB114D0026636855F823309847C6
:109E6000022811D003280DD0012810D163680133D6
:109E70000A2B636002D97846FEF76AFB237E002B2B
:109E8000EAD004E06660F9E7237E0BB1207070BD74
:109E9000BDE87040FFF7BEBF5C3700206C070400D0
:109EA000074A002352F8041B814202D1054A53603D
:109EB000704701330B2BF5D17846FEF749BB00BF45
:109EC0006C0704005C370020038810B5044613B902
:109ED0007846FEF73DFB2088084B04EB800030EA13
:109EE000030203D06288B2F5FE4F05D104EA0300F5
:109EF00000F580500378184410BD00BF00F0FFFF4C
:109F000070B504460D4647F6FE66FFF7DDFFA84232
:109F100007D2844205D24388013B9BB2B342F4D8B6
:109F200070BD0020FCE700000A78094B032A04BF3B
:109F3000002119761978012903D11B7E3BB9FFF75F
:109F400077BF022903D1032A01D1FFF763BF70470E
:109F50005C37002010B50C4CE3681878002203F53C
:109F60008051184404F0F6FC50B9E1680846FFF748
:109F70003FFF814206D001F58051E160032010BD12
:109F80000120FCE70220FAE75C3700201FB50A4BEE
:109F90000222DB688DF800200193084A4FF48053B9
:109FA00069460120029300F0D5FFB0FA80F0400925
:109FB00005B05DF804FB00BF5C3700207A37002055
:109FC0001FB50123CDE902210190054A8DF800302B
:109FD0006946184600F0BEFF05B05DF804FB00BFFF
:109FE0007A3700202DE9F047254EF0680379427951
:109FF000013B9A4203D101207076BDE8F08700F55D
:10A000008053DFF880801C781C44D8F8003013F8A7
:10A01000045F1D44FFF7ECFE6388013B9BB247F6EB
:10A02000FE62934200F5805704D920463946FFF777
:10A0300067FF0446DFF850A04FF001092CB9B4FACD
:10A0400084F4640974760120D7E7D8F80010628898
:10A05000284601F5805104F07DFC05460028EED02D
:10A0600004225146204686F81890FFF7A9FF28B928
:10A0700020463946FFF744FF0446DFE70020BCE7EF
:10A080005C3700207C370020140A040038B5104CDF
:10A09000E36818784FF6FF7203F58051184404F016
:10A0A00059FC88B1E36819780B4498420CD0657E5E
:10A0B0000849094B0422002D08BF1946FFF780FF0D
:10A0C00020B90120207638BD0120FCE70020FAE706
:10A0D0005C3700201C0A0400180A040070B50C4DFF
:10A0E0000C4EE96830680C7804302246FFF768FFB0
:10A0F00058B93268EB6804F0FC04043414441A784C
:10A100006C6113442B61012070BD0020FCE700BF8F
:10A110005C3700207C37002008B5054B05491868DE
:10A120000422FFF74DFFB0FA80F0400908BD00BFE0
:10A130007C37002068370020074B10B51968074CA2
:10A1400040F6FC72E0680431FFF73AFF10B90120D5
:10A15000207610BD0020FCE77C3700205C37002013
:10A1600010B50C4CE1680846FFF742FE81420AD167
:10A17000094B0A4918680422FFF722FF40B901235E
:10A180002376022010BD01F58051E1600320F9E73C
:10A190000020F7E75C3700207C3700208037002064
:10A1A0002DE9F74F324D2B6913B97846FEF7D0F9F8
:10A1B0006B6913B97846FEF7CBF9DFF8B89047F62C
:10A1C000FE6A6B69D5E9030603EA0908A8EB0308F0
:10A1D000FFF70EFE7388013B9BB2534508F580588C
:10A1E00000F5805B06D930465946FFF789FE0646E2
:10A1F000002835D0344600275C4519D2228807EB69
:10A200008202904509D986EA040313EA090F04D1B2
:10A210006388013B9BB2534502D957B9012318E02B
:10A2200020460192FFF750FE019A04461746E3E7E5
:10A23000E7B168693A463146FFF7C2FE90B96B69EB
:10A240003B446B6114B97846FEF782F92C61002318
:10A2500034B1618847F6FF72914201D0002BB0D033
:10A26000012000E0002003B0BDE8F08F0123EFE7FC
:10A270005C37002000F0FFFF1FB50A4B02221B686D
:10A280008DF800200193084A4FF48053694601205D
:10A29000029300F05FFEB0FA80F0400905B05DF86F
:10A2A00004FB00BF7C3700207A3700201FB5002355
:10A2B0002A4AD3F8F81F13704A1C0CD14FF0102310
:10A2C0005A69013201D05A6952B94FF080535A6924
:10A2D0001B695A4307E00029F7D0A1F5805202E03C
:10A2E0005A69A2F580521E4B1E4C1B68A2F5805283
:10A2F000DB02226016D51C4B1B68062B12DD481CA6
:10A3000008BF4FF01021194BD3F8043508BF496935
:10A31000CDE90112164A0092164940F27622072032
:10A3200003F0B4F8236819684B1E033314D8C1F343
:10A330000B028AB9104B11481A830124D9601C7092
:10A340009A60FFF7ADFD20460D4900F0F3FDFFF7E1
:10A350006FFD204604B010BD0020FBE778370020D9
:10A36000482E00207C370020442E002000100140A1
:10A3700038070400210704005C3700208D9F02008D
:10A38000299F020010B5044610B97846FEF7E0F8A0
:10A39000094A107860B1E068D1684379A0EB0333D3
:10A3A000994206D3FFF724FD81428CBF0020012093
:10A3B00010BD0020FCE700BF5C370020024B18787E
:10A3C000003818BF012070475C37002038B5114CA9
:10A3D0002378054613B17846FEF7BAF82B78032B9D
:10A3E00002D07846FEF7B4F8EB68E3600A4B0B49FD
:10A3F0001B78A560002B14BF0A2300236360012093
:10A4000000232070238300F095FDBDE83840FFF75E
:10A410000FBD00BF5C37002078370020299F020065
:10A42000014B1868704700BF7C37002010B5044608
:10A4300010B97846FEF78CF863681BB123680BB13E
:10A44000A36813B97846FEF783F8A3685A1E1A4228
:10A4500002D07846FEF77CF80023C4E9033310BD30
:10A4600070B50E460446F0B18368F3B1EFF3108582
:10A4700072B6D0E90331994203D105B962B6052518
:10A480000FE04EB18368013B0B40D0E9001230462B
:10A4900002FB031115F0B5F923690133236135B9C6
:10A4A00062B6284670BD0E25FBE70925F9E70025B1
:10A4B000F7E70000024AD2F80034002BFBD07047C7
:10A4C00000E0014038B5C0F30B04ECB9F1B1104D18
:10A4D0000223C5F8043501F6FF7121F47F61FFF70F
:10A4E000E9FF21F00F010144884206D10023C5F89D
:10A4F0000435FFF7DFFF204638BDC5F80805FFF734
:10A50000D9FF00F58050EFE71024F4E70924F2E7C3
:10A5100000E0014040EA010370B5064698071ED1ED
:10A52000FAB112F003001CD10F4B94080122C3F8BA
:10A530000425FFF7BFFF0546A54206D10A4B0022BE
:10A54000C3F80425FFF7B6FF70BD51F825305A1C3B
:10A5500003D046F82530FFF7ADFF0135ECE71020BA
:10A56000F2E70920F0E700BF00E0014041F282631A
:10A5700098429DBF024B1878C0F3C000012070477D
:10A580001B38002013B50190000C01280C4602D0A6
:10A590007846FDF7DDFF084A0849236813600B7809
:10A5A00043F001030B7083F00203C3F34003002068
:10A5B000137102B010BD00BF143800201B380020FA
:10A5C00013B50190000C02280C4602D07846FDF726
:10A5D000BFFF084B22681A6022791A71064A0020D0
:10A5E00058719871D871137843F00203137002B058
:10A5F00010BD00BF0C3800201B38002013B501909F
:10A60000000C03280C4602D07846FDF7A1FF034B4F
:10A610001A6822601B79237102B010BD1438002023
:10A6200013B50190000C03280C4602D07846FDF7C4
:10A630008FFF064B22681A6022791A71044A137838
:10A64000002043F00103137002B010BD1438002045
:10A650001B38002013B50190000C04280C4602D0D2
:10A660007846FDF775FF034A1368236053686360FB
:10A6700002B010BD0C38002013B50190000C042866
:10A680000C4602D07846FDF763FF064A2368136044
:10A6900063685360044A1378002043F00203137088
:10A6A00002B010BD0C3800201B38002007B5019007
:10A6B000000C032802D07846FDF74AFF034B002226
:10A6C0001A601A7103B05DF804FB00BF1438002053
:10A6D00007B50190000C042802D07846FDF738FF3A
:10A6E000034B00221A605A6003B05DF804FB00BF00
:10A6F0000C38002000B50A4B1A7B9B688DB0012AEC
:10A7000008BF03F1FF3304930390022301A88DF8DF
:10A7100008208DF80430FFF749F90DB05DF804FB0F
:10A72000B0370020074A1378590709D50178122954
:10A7300006D10549086805496FF382034860137024
:10A74000704700BF1B38002014380020B0370020AD
:10A750001FB5144C23785B0602D47846FDF7F8FE4B
:10A76000237813F004011BD10F4A526802F50052FE
:10A77000B2F1807F029213D843F004030B4A237096
:10A780000323ADF80410ADF80630127801988DF867
:10A790000C2002A905F016F910B17846FDF7D8FE95
:10A7A00004B010BD1B380020B03700201C3800203A
:10A7B0001FB5104B996802910F491B7B8DF80C3027
:10A7C0000B780133DBB200220B708DF80F300423BD
:10A7D000ADF80420ADF806300198ADF80D2002A9BF
:10A7E00005F0F0F810B17846FDF7B2FE05B05DF85F
:10A7F00004FB00BFB03700201C38002008B5002043
:10A8000005F054F914220748002115F023F8064AF0
:10A81000137823F0600343F040031370BDE8084051
:10A82000FFF796BFB03700201B38002010B50C4C46
:10A8300014220021204615F00DF801F047F8094BCD
:10A84000094A0A499A600022C3E9031258605A6112
:10A85000074B6260197862F3C301197010BD00BF25
:10A86000B03700208C370020FDA902000087930339
:10A870001B38002037B52B4D2B78DB0638D42A48FF
:10A880002A4B036000F0B0FD29482A4B036000F01A
:10A89000ABFD2B7813F0200212D103F00303032B3E
:10A8A000254C27D02260A26022732282FFF780FF0E
:10A8B000236863602B7843F040032B70FFF748FF59
:10A8C00001230024ADF80630ADF80440019805F0EE
:10A8D000C8F80223ADF80230ADF80040009805F04A
:10A8E000C0F8164800F07EFF2B7843F010032B7061
:10A8F00003B030BD124B1A68A2601A79227398799E
:10A90000597941EA00212182D9790E4B19700E4BF9
:10A910001879884202D00AB92260C9E71B6823600F
:10A92000C6E700BF1B380020A4370020A1AA020000
:10A930000038002025A70200B03700208C37002007
:10A940000C3800201C38002014380020034B1878E5
:10A9500080F00400C0F38000704700BF1B38002067
:10A9600010B501F06BFC0D4A137BA3B9947B94B92D
:10A97000108AFFF7FBFD70B10123137393681482F3
:10A9800001339360FFF714FF2046FFF7B3FE01F099
:10A9900095FC204610BD0824F9E700BFB037002021
:10A9A00010B501F04BFC144A547B9CB1917B09BB60
:10A9B000108AFFF7DBFD044660B1137B51732BB1A6
:10A9C000012B0BD07846FDF7C3FD03E0FFF7C8FF6E
:10A9D0000028F7D101F072FC204610BD0846C2E9FC
:10A9E000001111731182FFF785FEFFF7E1FEFFF7FB
:10A9F000AFFEEFE70024EDE7B03700201FB5264C8F
:10AA0000227B2AB1012A0FD07846FDF7A1FD1CE078
:10AA1000208AFFF7ABFDC0B1FFF7C2FF638A0BB11D
:10AA2000013B638204B010BD218A0846FFF79EFDFA
:10AA300058B142F2B013994288BF6273FFF7B0FF7A
:10AA40000028EBD1637B002BE8D1238A01339BB232
:10AA50001E21B3FBF1F201FB123292B22382002AD3
:10AA6000DCD1ADF80D300D4BA1681B788DF80F309F
:10AA700004230291ADF80420217BADF806308DF857
:10AA80000C10019802A904F09DFF0028C6D078465A
:10AA9000FDF75EFDC2E700BFB03700201C38002084
:10AAA00010B50378042B0ED143681B785BB11C4BA7
:10AAB0004269197B047E69BB598AF9B9012C9968EE
:10AAC00002D08A4203D810BD4C1CA24218D92A31A8
:10AAD0008A42F8D8997B0029F5D184689A60114A96
:10AAE0001A619981C3E90011FFF762FEFFF730FE9A
:10AAF00004F11000BDE81040FFF7FCBD012CE2D1CD
:10AB0000996801318A42DED10122BDE810405A73B2
:10AB1000FFF746BF0129D6D1012CD4D09968F1E7BF
:10AB2000B03700200000062D10B50C4C236828B16A
:10AB300001210B4A0B449173236010BD13B9784671
:10AB4000FDF706FD2368013B2360002BF5D1044A85
:10AB5000BDE810409373FFF723BF00BF8437002088
:10AB6000B037002000B58DB00323ADF8080001A870
:10AB70008DF8102003918DF80430FEF717FF0DB00B
:10AB80005DF804FB014B9868704700BFB0370020A8
:10AB9000034B98681B7B012B08BF00F1FF30704707
:10ABA000B03700201A4B1B785B0670B505460E4681
:10ABB0002AD5184CD4E900239A4223D2207B164B85
:10ABC0001649012808BF0B469A4207D263682268DB
:10ABD000403B9A4208D3FFF7BBFD05E001236373B6
:10ABE000FFF7DEFE0028F1D0EFF3108272B6236883
:10ABF000591C21603360FFF7CBFF286032B962B681
:10AC0000104670BDFFF7A4FD0F22F9E70022F7E719
:10AC10001B380020B0370020FFFF7F0000E0FF005E
:10AC2000044B9B685840C20748BF03F1FF331846E6
:10AC3000704700BFB0370020014B187B704700BF42
:10AC4000B0370020F8B50F4E337813F020041746C4
:10AC500015D10D4D43F0200333702973A8602C8269
:10AC6000FFF7A6FD2046FFF745FD337843F040038C
:10AC7000C5E900773370FFF76BFD2046F8BD08206B
:10AC8000FCE700BF1B380020B03700200022FFF790
:10AC9000D9BF00002DE9F3411D4CDFF87880002575
:10ACA0000221204602F0E9F9EFB201460026B9B9C7
:10ACB0006EB12046019102F047FA0828019906D1A9
:10ACC00054F8043C1BB10A463846414698470135C2
:10ACD000032D04F1BC04E3D1012002B0BDE8F081F2
:10ACE00054F8043C1BB134F80C2C3846984734F81F
:10ACF0000C3C02210133204624F80C3C02F0D9F927
:10AD00000221204602F0B9F901360146CFE700BF23
:10AD100034380020A807040038B5012104460C305F
:10AD200002F0ABF9054620B3154BC4F89C30002364
:10AD3000C4F8A03003786168012B07D0022B1AD029
:10AD40007846FDF705FC4FF4FA7306E08268531A63
:10AD50009B082922534303F5FA730A4A934294BF8E
:10AD6000C4F8A830C4F8A8200123C4F8AC4084F883
:10AD7000B830284638BD8368034A5B1A1B0BE9E7E5
:10AD8000ADAD020060850100084C010010B504461D
:10AD9000FFF7C2FF48B104F19C000BF09BFE20B10D
:10ADA0007846BDE81040FDF7D3BB10BD4A4B1B7879
:10ADB0002DE9F74F07460C463BB10BF0C1FE0023CF
:10ADC00084F8B83003B0BDE8F08F01F10C09D1F878
:10ADD000A8504846012102F050F9064610B97846BD
:10ADE000FDF7B6FBDFF8F8A0A5F5FA784FF0290BD0
:10ADF00000253378012BA8EB050506D0022B3BD0AC
:10AE00007846FDF7A5FB00231FE06368B268B5FB39
:10AE1000FBF5D21AAD00954228BF154625B901931E
:10AE20007846FDF795FB019BF168706823F00303FA
:10AE30002A4619441844FFF76DFB10B17846FDF718
:10AE400087FB63681D446560B36862689A422AD1D3
:10AE50000BF076FE4846012102F02BF900236360D7
:10AE600084F8B8301D4B186801F076FA204603B01C
:10AE7000BDE8F04FFFF78ABF6368B268B5FBFAF52B
:10AE8000D21A2D03954228BF154625B9019378465D
:10AE9000FDF75EFB019B706823F00303294618440D
:10AEA000FFF710FBC9E701F0BBF83378C51B48BFBB
:10AEB0003D1A012B0BD0022B0BD07846FDF748FB37
:10AEC00000232B44434594D90BF03AFECEE72923C7
:10AED000F7E75346F5E700BF24380020203800206C
:10AEE000084C01002DE9F0410F48104C01F016FA12
:10AEF0000F4B002518604FF008081027032604F1B7
:10AF00001C03636104F10C0004F11803013584F89B
:10AF10000E8067732673236102F0F2F8032D04F1AB
:10AF2000BC04ECD1BDE8F08195AC020028380020CB
:10AF300020380020022838B504460D4602D978464C
:10AF4000FDF706FB0248BC2303FB0404A56038BDE3
:10AF50002838002002282DE9F84F05460C46924675
:10AF600002D97846FDF7F4FA14B97846FDF7F0FAFD
:10AF70002378012B12D16368990702D07846FDF738
:10AF8000E7FAE3689A0702D07846FDF7E1FAA3688A
:10AF90009B0711D07846FDF7DBFA0DE0022B0DD1AF
:10AFA0006368C3F30B0313B17846FDF7D1FAA368C6
:10AFB000C3F30B03002BEDD1A36813B97846FDF75B
:10AFC000C7FAEFF3108772B6BC26DFF894906E4391
:10AFD00006F10C0BCB440021584602F04EF8804697
:10AFE00038B30021584602F064F804F1100354F815
:10AFF000042B48F8042B9C42F9D1BAF1000F05D07C
:10B00000BC2303FB05935B88AAF80030BC2000FB3F
:10B0100005956B8895F8B84001336B80E4B90F4B08
:10B020001D783DB909EB0600FFF776FE2FB12C46DF
:10B0300005E004246FB92746002062B63C4640B1C3
:10B0400006F19C0048440BF045FD10B17846FDF731
:10B050007FFA2046BDE8F88F0024EBE72438002073
:10B0600028380020F8B5EFF3108772B6114D2B6821
:10B07000E0B913B97846FDF76BFA2C68013C2C60F7
:10B080005CB90D4E96F8B83013B93046FFF77EFE26
:10B090000134032C06F1BC06F4D12B68074A003BAF
:10B0A00018BF0123137007B962B6F8BD01332B60D6
:10B0B000F3E700BF5C3A0020283800202438002045
:10B0C00010B1024B800B185C704700BFB80704003A
:10B0D00012DF704707B501F0ADFC90B10A4B1B6859
:10B0E0005B060ED5094B1B68012B0ADD084B094A8C
:10B0F000D3F804350849019000920220752202F02D
:10B10000C5F903B05DF804FB482E0020442E002052
:10B11000001001400C0804000108040070B58AB05A
:10B120000CF0DAF90446002834D000238DF81030F2
:10B1300006460FCE05AD0FC533682B60627D052A2C
:10B140000CD9207D00F00F03072B07D004AB063A83
:10B1500004F11D0100F00F000BF042F8114B1A68CA
:10B16000AAB104AB0393237DC3F303038DF804302A
:10B17000637D062B89BF063B00238DF8053004F163
:10B180001D0398BF8DF80530029301A89047204613
:10B190000CF08CF90CF0BAF980F00100C0B20AB0E2
:10B1A00070BD00BF683A002010B5114C2378022B07
:10B1B0008CB005D07846FDF7CBF901200CB010BD5E
:10B1C000FFF7C4FB18B90B48FEF71CFCF5E70CF0C1
:10B1D0004FF903232C22002101A8237014F03AFB1D
:10B1E0001D2301A88DF80430FEF7E0FBE5E700BF62
:10B1F000643A0020382E002000B50A4B1A78042A41
:10B200008DB00CD105221A7000212C2201A814F057
:10B2100021FB1C2301A88DF80430FEF7C7FB0DB0FD
:10B220005DF804FB643A002008B50378122B08D1BE
:10B230000448FEF7F7FB044B1868BDE8084001F02E
:10B240008BB808BD382E0020603A0020F7B5314F8A
:10B250003B780546002B52D1002852D0067A0F2E9B
:10B2600001D0062E4FD105F005FBE868002843D039
:10B27000FDF77EF90DF10700FFF72AFF0446C0BB7A
:10B280009DF80730012B40D1FDF79EF900F092FAAE
:10B29000304600F085FFE87800F018F900F0BCFDBA
:10B2A0000BF0AEFB1C480CF0C7F90BF019F90AF0D3
:10B2B0006DFFFFF717FE04F02FFB00F051FC05F0C7
:10B2C00099FA05F091F8284601F018FBFDF756FFB2
:10B2D00003F050FEFDF79AF808B1062817D10F4881
:10B2E00001F01CF80E4B18600E4B00221A6001236F
:10B2F0003B70204603B0F0BDFDF746F9BAE70824DD
:10B30000F7E70E24F5E70724F3E70224F1E7044604
:10B31000EFE700BF643A00201DB10200A9B10200AE
:10B32000603A0020683A002037B51C4D2B78012B7D
:10B3300004D0043B012B24D908241DE001F0ECFAD1
:10B34000FDF75EFFFDF762F80446C0B1062816D08F
:10B35000134B1B685B040FD5124B1B68012B0BDDD5
:10B36000114B124AD3F80435114901900092022082
:10B370004FF4C27202F08AF8204603B030BD00F0EC
:10B380003BFF0BF099FB04460028F5D102232B70FC
:10B39000084B186800F0E0FFEEE700BF643A0020B9
:10B3A000482E0020442E00200010014035080400E3
:10B3B00001080400603A002008B5084B1A78032AF7
:10B3C0000AD1042206481A700BF03CFB18B17846EB
:10B3D000FDF7BEF8002008BD0820FCE7643A002015
:10B3E000F9B10200FDF70EBFFEF70CBBFEF71ABB6A
:10B3F00008B500F0E1FC002008BD06F00DBB000020
:10B40000044B1A680132B2F1704F08BF01221A6072
:10B41000186870476C3A002010B5044610B9784699
:10B42000FDF796F80023C4E9003310BD38B50D468A
:10B43000044610B97846FDF78BF815B97846FDF744
:10B4400087F800236B60EFF3108372B6226822B98D
:10B450002560656003B962B638BD62685560F8E77B
:10B4600010B5044610B97846FDF772F8EFF3108274
:10B4700072B6206820B90023636002B962B610BDBD
:10B4800043682360002BF8D1F5E710B5044610B9E6
:10B490007846FDF75DF8206810BD35DF7047000085
:10B4A00008B54FF0FF30FFF7F8FFBFF34F8F0549A6
:10B4B000054BCA6802F4E0621343CB60BFF34F8FC1
:10B4C00000BFFDE700ED00E00400FA0507289ABF81
:10B4D000024B33F81000FA20704700BF5A080400EE
:10B4E000024B5868103840B2704700BF00ED00E0D2
:10B4F00000280346B8BF00F11F03084A5B1152F849
:10B500002330424202F01F0200F01F0058BF504299
:10B5100023FA00F000F00100704700BF00E100E0F6
:10B5200046DF704730B501F110031032103013F8C8
:10B53000014D12F8015D8B4284EA050400F8014DCB
:10B54000F5D130BD2DE9F04F91B002F10F0604ACFA
:10B550001D4689463611034600F1100CA2461868B4
:10B560005968274603C7083363453C46F7D102F0C4
:10B570000F04002E59D0B4FA84F84FEA581810225C
:10B58000002108A814F066F9C8F1020B5046FFF735
:10B59000C7FF5FFA8BFB01220CA89DF93010002336
:10B5A000074690F800C010F801EF01339BB24FEA54
:10B5B0004C0C4CEADE1C0F2B00F801CCF1D19DF8AD
:10B5C0003F305B00DBB20029B8BF83F087038DF802
:10B5D0003F30531C9B454FF00202DDD2013E09EB88
:10B5E0000611B8F1000F22D00CAA6846FFF79AFFA7
:10B5F000102200210CA814F02DF90024B44229DBFC
:10B600003A46694608A8FFF78DFF5046FFF788FFC6
:10B6100010AA3B4603CB9342286069601F4605F1A0
:10B620000805F6D111B0BDE8F08FB046A7E7224675
:10B63000684614F0E6F810AB23448022601C03F83F
:10B64000402C4146C4F10F02684414F003F90CAADF
:10B650006946CAE709EB0412394608A8FFF762FFFA
:10B660005046FFF75DFF0134C8E7000038B5114BC5
:10B670001A6804462AB11A6840685268821A002A79
:10B680000DDA1A6862611C609A88013292B29A805F
:10B6900012B97846FCF75CFF0123237038BD1A68A5
:10B6A000154652691AB15168091A0029F8DB62611E
:10B6B0006C61E9E7783A00200F4B1A68824210B5B6
:10B6C00004460DD142691A609A8892B2511E89B21D
:10B6D000998012B97846FCF73BFF0023237010BD18
:10B6E0001A68002AF9D05169A14202D161695161F9
:10B6F000EAE70A46F5E700BF783A0020014B1868F0
:10B7000000F02ABE703A0020044B1A6822B11B6870
:10B710000349586800F062B900F0B8B9783A0020DF
:10B72000FDB60200F8B500F0D1F8214E054600271D
:10B73000336823B133685B685B1B642B05D400F06E
:10B74000C5F8FFF7E1FF0120F8BD34682378012B2D
:10B7500002D07846FCF7FCFE63693360B38867610A
:10B760009BB25A1E92B2B28013B97846FCF7F0FE33
:10B77000A36813B97846FCF7EBFE0223284621693B
:10B780002370A368984700F0A1F82378022B0546A0
:10B79000CED1E2680AB92270CAE763681344591B24
:10B7A0006429FBD463602046FFF760FFC0E700BF59
:10B7B000783A0020074A084808B500231370074A62
:10B7C0001360536000F0AAFD054B1860BDE8084007
:10B7D00000F06EB8743A002025B70200783A0020D5
:10B7E000703A0020134B1B7810B5044613B178460D
:10B7F000FCF7AEFE00F08CFE10B97846FCF7A8FE10
:10B8000014B97846FCF7A4FEA36813B97846FCF790
:10B810009FFE2378012B02D17846FCF799FE002386
:10B8200063612046FFF722FF00F050F8BDE81040AA
:10B83000FFF76ABF743A002010B5044600F068FEB6
:10B8400010B97846FCF784FE14B97846FCF780FE00
:10B850002046FFF731FF0023636100F037F8BDE8B1
:10B860001040FFF751BF000038B5104B1B7804465D
:10B870000D4613B17846FCF76BFE00F049FE10B997
:10B880007846FCF765FE14B97846FCF761FE204661
:10B89000FFF712FF0023636120466560FFF7E6FEB5
:10B8A00000F014F8BDE83840FFF72EBF743A0020CE
:10B8B00008B513F03DFE38B913F06CFD20B17846A1
:10B8C000BDE80840FCF744BE08BD000010B5EFF32A
:10B8D000108072B60C490D4B1A68D1F80435D1F8B6
:10B8E0000441012C04BFD1F80435013200B962B61D
:10B8F000074943EA02634FF480400022E3FB010260
:10B90000C00B40EA424010BD00100140803A0020C8
:10B9100040420F000A4B10B54FF40032094CC3F8F7
:10B920004823C3F80823236813B97846FCF710FEB0
:10B930002468FFF7CBFF2346BDE81040184700BF3F
:10B94000001001408C3A002070B5EFF3108072B601
:10B950001D4B1E490022C3F804210A6801320A6007
:10B9600000B962B61A4A1168F9B11168013911605B
:10B970001268D2B91749D3F804050A68904215D263
:10B98000EFF3108072B6D3F804250C68951CA5421D
:10B9900034BF0A680332C3F8442500B962B64FF4D5
:10B9A0000032C3F84423C3F8042370BD0A4C236853
:10B9B00013B97846FCF7CCFD2468FFF787FF2346D0
:10B9C000BDE87040184700BF00100140803A0020D9
:10B9D000843A0020883A00208C3A002073B5002376
:10B9E000054601930C4611B97846FCF7B1FD214B91
:10B9F0001C60FFF76BFF431B002BB8BF2C1A4FF0E6
:10BA000000061D481D4AA8BF34464FF40045314684
:10BA10000023E4FB050113F0B5FDEFF31083019360
:10BA200072B6174A174CD2F804350328C3F1FF1138
:10BA300001F57F4138BF0320814213490FD30344EE
:10BA4000C2F844354FF40033C2F84433C2F804332B
:10BA500026600E60019B03B962B602B070BD03F1AF
:10BA60007F43013303441A0E013223F07F432260E7
:10BA70000B60EFE78C3A002020A1070040420F0046
:10BA800000100140843A0020883A0020074B4FF410
:10BA90000032C3F84823C3F80823054A0023136083
:10BAA000044A1360044A1360704700BF001001404D
:10BAB000843A0020883A00208C3A002030DF70471A
:10BAC00031DF704710B5D0E900238468C168A2EB6C
:10BAD000731283EAF43303600C441344114444604A
:10BAE0008160C360184610BD73B50D46064610B997
:10BAF0007846FCF72DFD0024A54201D802B070BDA8
:10BB00000DF10700FFF7DAFF9DF80720002AF7D0B4
:10BB10002B1B9A4288BF8DF8073030199DF807100B
:10BB2000FFF7CEFF9DF807301C44E5E737B5042149
:10BB3000044600230DEB01000193FFF7D5FF074BEF
:10BB40002360019BE360C4E9013314252046FFF71D
:10BB5000B9FF013DFAD103B030BD00BFED5EEAF19F
:10BB60007047032003F0A2BF48DF704749DF7047EA
:10BB70004ADF7047074B032218681A74064A5A6155
:10BB800040F6D86143F2B063884298BF0B46936099
:10BB9000704700BFCC3A0020EC3A0020064B1A68F0
:10BBA000064B1B68A2F1780028335343044AB3FBC9
:10BBB000F2F3C01A704700BFCC3A0020E83A0020E8
:10BBC00040420F000D4B012210B55A710C4A00245F
:10BBD0001C7413680133136000F07EFA0BF026F832
:10BBE000FFF7DCFF074A0146204600F0E5F920B1E7
:10BBF0007846BDE81040FCF7ABBC10BDCC3A002045
:10BC0000003B002075BB02001F4B10B45A6928B1DD
:10BC10001968DC6811440134DC60196099680124FA
:10BC20000131E24001291C7499601C685A610ED0F0
:10BC300002291AD05B69154A1C44944203D840F685
:10BC4000D76293421CD85DF8044BFFF7BBBFB2F537
:10BC5000FA7F03D130B900225A61EBE740F6D86190
:10BC60008A42E7D840F6D862F6E7DA68022A02D1BB
:10BC7000064A121BF0E7012ADCD10028EBD0D9E7F5
:10BC80005DF8044B704700BFCC3A002080969800C6
:10BC900070B5414C414D012323712B781BB1404BB2
:10BCA0001E78002E59D000232374042851D8DFE8D1
:10BCB00000F0034B484642003A4DA179AA68C4E916
:10BCC00002332368226099B3012121743649002B85
:10BCD00008BF0B46991AB1F57A7F25D39A4223D82B
:10BCE000616143F2B06043F69822C5E90202012384
:10BCF0006B71A371237C023B012B0CD863793BB1A0
:10BD00000AF0B0FFFFF74AFF00F018FA0023637152
:10BD1000234B00221A70237C2448022B04BF0123EA
:10BD200023760023237170BD4FF47A736361D8E7E3
:10BD3000FFF748FFD5E70120FFF766FFDAE70020AD
:10BD4000FAE70AF021FFD5E700F08AF90AF054FF7C
:10BD5000D0E77846FCF7FCFBCCE700F061F92B78E4
:10BD60002060022B0FD0032B06D0012B10D1022311
:10BD7000237400232B70BDE70A4B0D490D4A5E71F9
:10BD8000C3E90212A67103232374064B6361F0E733
:10BD90007846FCF7DDFBECE7CC3A0020FD3A0020CA
:10BDA000FC3A0020EC3A002080969800DC3A002013
:10BDB000A0860100FF1FA107043808B5042825D874
:10BDC000DFE800F016220A030F00114B1B7E012B47
:10BDD0001CD1FFF7CBFEC8B17846BDE80840FCF7A0
:10BDE000B7BB0B4B00221A76BDE808400AF076BFBD
:10BDF00008480123437143F6982240F6D863C0E90E
:10BE00000232FFF7B5FEE6E70248FAE708BD00BFD9
:10BE1000CC3A0020EC3A00200D4A4FF48071002308
:10BE2000918043F2B06C43F698211370C2E902C1CD
:10BE3000084A1060084A1370084A1370084A1360D1
:10BE4000084A13761360938001239371704700BFF3
:10BE5000EC3A0020E83A0020FC3A0020FD3A0020AD
:10BE6000003B0020CC3A002010B50D4C237E012B66
:10BE700009D0022B12D07BB90A48FFF775FE10B12A
:10BE80007846FCF765FB0848FFF772FE10B178466C
:10BE9000FCF75EFB02232376002000E0112010BD9A
:10BEA000CC3A002091BC0200EC3A0020074B1B7CEE
:10BEB000023B012B07D9064B1878013802288CBFAA
:10BEC0000020012070470120704700BFCC3A0020BD
:10BED000FD3A0020014B1868704700BFCC3A0020A3
:10BEE000064B5B7910B53BB1FFF758FE044600F0F6
:10BEF00097F8231A48BF031B184610BDCC3A002000
:10BF0000014B5879704700BFCC3A0020014B18799B
:10BF1000704700BFCC3A0020024B187E003818BF93
:10BF200001207047CC3A0020EFF3108372B6054A27
:10BF3000527922B1044A4FF48071C2F8001103B95A
:10BF400062B67047CC3A002000E100E0044B1B7E53
:10BF5000022B04D1034B01221A70FFF7E5BF704793
:10BF6000CC3A0020FD3A0020054B1B7E022B06D167
:10BF7000044A012808BF03231370FFF7D5BF704799
:10BF8000CC3A0020FD3A0020054B1A7832B128B98E
:10BF9000044A127812B11870FFF7C6BF18707047C4
:10BFA000FC3A0020FD3A0020024B1B6803B962B640
:10BFB000704700BF143B0020022810B523D8EFF3D0
:10BFC0001084124B1C6072B6114B43F82020114BA9
:10BFD000002243F82020104B1B7883B1830003F12B
:10BFE000804303F500431030C3F84021C0B2012262
:10BFF00002FA00F0094AC2F80403C3F84015FFF73B
:10C00000D3FF002010BD0720FCE700BF143B002039
:10C01000043B0020203B0020103B0020008000401B
:10C0200008B5EFF310820A4B1A6072B6094B1B7801
:10C0300053B1094B0022C3F84C210122DA64D3F832
:10C040004C05FFF7B1FF08BD044B1868F9E700BFC6
:10C05000143B0020103B002000800040183B0020D3
:10C060002DE9F84F0024174EDFF85C80A1464FF011
:10C07000010BA50005F1804505F50045D5F84031D7
:10C08000CBB1D8F8043304F11007FB40DB0712D51D
:10C09000D6F800A0BAF1000F02D17846FCF758FAA2
:10C0A0000BFA07F7C6F80090C8F80873FFF7B8FF57
:10C0B000D047C5F840910134032C06F10406D8D1CD
:10C0C000BDE8F88F043B002000800040014B1B6856
:10C0D000184470471C3B002008B5134B0022C3F8DE
:10C0E0004025C3F84021D3F84011C3F84425C3F8D4
:10C0F0004421D3F84411C3F84825C3F84821D3F8A4
:10C1000048310A4B1B681BB9094B4FF480721A6007
:10C11000084B01221A70FFF7D9FB0146FFF780FF99
:10C12000054B081A186008BD00800040143B002031
:10C1300000E100E0103B00201C3B00200B4A0C49B2
:10C1400000231360536093600A4A0B6010600A4A30
:10C150004B6013708B60094B4FF0FF32C3F808231C
:10C16000074B4FF48072C3F880217047203B0020BA
:10C17000043B0020183B0020103B002000800040C2
:10C1800000E100E0044B1B780F2B1EBF034B4FF464
:10C190008022C3F800217047903C002000E100E0BD
:10C1A00010B5104C104B2070104803601023C0E9EC
:10C1B0000133FEF73BF90E48FFF72EF923780F2BDA
:10C1C0000AD0072B09D8EC221A41D20705D5094A13
:10C1D0005B01DBB282F8123310BD7846BDE8104037
:10C1E000FCF7B6B9903C0020403B00202C3B0020DF
:10C1F000943C002000E100E00D4B1B780F2B0DD08C
:10C200000C4991F812335A09EC231341DB0706D588
:10C21000094B9A6832B94FF480230B607047784617
:10C22000FCF796B91A6842F480221A60704700BF82
:10C23000903C002000E100E0A05C0020F8B5EFF3A6
:10C24000108772B617490B685A1C0A6003BB164B5D
:10C250001B780F2B21D0EFF3108C72B6134A144CBD
:10C2600095680123E5B99360124B134ED3F8800013
:10C2700030401060C3F88060D3F8840050604FF005
:10C28000FF32C3F884202570BCF1000F00D162B6E4
:10C290000B6813B97846FCF75BF907B962B6F8BDCD
:10C2A0002370F1E7403C0020903C0020A05C00207F
:10C2B000913C002000E100E0FC06FFBD38B5EFF343
:10C2C000108572B6104C236813B97846FCF740F914
:10C2D0002368013B2360A3B90C4B1B780F2B10D0B4
:10C2E0000B4B9A686AB10B4A127852B9EFF310807F
:10C2F00072B609491C680C605C684C609A6000B9B1
:10C3000062B605B962B638BD403C0020903C0020C2
:10C31000A05C0020913C002000E100E038B504461C
:10C3200010B97846FCF714F9094D2B68102B02D987
:10C330007846FCF70DF9EFF3108372B62868421CBB
:10C340002A60044A42F8204003B962B638BD00BFF3
:10C35000443C0020483C00200E4B1B68834210B533
:10C36000044602D87846FCF7F3F8EFF3108072B673
:10C37000094A6109012304F01F0403FA04F452F886
:10C380002130234342F82130FFF7FCFE00B962B6AA
:10C3900010BD00BF443C00208C3C002070B50D4611
:10C3A0001646044610B97846FCF7D2F815B9784617
:10C3B000FCF7CEF8EFF3108372B60022C4E9025600
:10C3C0002274246003B962B670BD000070B50446E3
:10C3D00010B97846FCF7BCF8A36813B97846FCF7A7
:10C3E000B7F8EFF3108672B6237C03F0FF055BB954
:10C3F0000123064823742146FFF718F8FFF7C2FE11
:10C40000284606B962B670BD1120FAE7943C0020B8
:10C4100010B5044610B97846FCF79AF8207C10BD98
:10C420002DE9FF47334F3B7813B17846FCF790F87E
:10C430000125DFF8CC90DFF8CC80DFF8CCA03D7090
:10C440000024D9F80030A34212D82B48DFF8A88086
:10C45000FFF706F8002660BB284C69462046FDF72A
:10C46000FFFFA0B3002328463B7004B0BDE8F0876F
:10C47000630904F01F0158F82300C840C20716D50D
:10C48000EFF3108072B6012202FA01F158F823206E
:10C4900022EA010248F8232000B962B65AF8243093
:10C4A0009847064618B92046FFF756FF354601342F
:10C4B000C7E70468237C13B97846FCF749F8D4E948
:10C4C0000230984726744046FEF7CAFFC3E79DF83E
:10C4D000003043B1012BC0D1019B002BBDD0DDE961
:10C4E00002019847B9E7019B002BB6D00298984704
:10C4F000B3E700BF9C3C0020943C00202C3B002074
:10C50000443C00208C3C0020483C0020FFF788BFC2
:10C5100007B5FEF7E5FF8DF803009DF803301749D6
:10C52000F02B0DD10B780F2B25D01220FEF7E0FF5A
:10C5300080F00100C0B200F0010003B05DF804FB20
:10C540009DF803305BB2002BABBF03F160430C4A94
:10C5500003F5614303F00F03ACBF93F80033D35CE2
:10C560005B090193019A0B78934204D0019A93429C
:10C57000DBD30020DFE70120DDE700BF903C002097
:10C5800014ED00E046DF7047F0B58DB015466A4601
:10C590000B46044600F1100C1746206861681646E9
:10C5A00003C6083464453246F7D104AC03F11006E3
:10C5B00018685968224603C20833B3421446F7D1BB
:10C5C0003846FFF7DFFF08AC2A460CAD234603CB05
:10C5D000AB42106051601C4602F10802F6D10DB06A
:10C5E000F0BDFEF7AFBF01F0CABD01F002BE0229E7
:10C5F00030B419D8F1B11970C168D2010C045A7065
:10C6000004F47F04C1F3074222439A70C1F3072167
:10C61000120CD9701A71028952BAA3F80520428807
:10C6200052BAA3F8072020E0032924D0784630BC72
:10C63000FBF78EBF827AC47A197002F07F0242EA59
:10C64000C412C4685A702504C4F3074205F47F0578
:10C650002A439A70C4F30724120CDC701A71028901
:10C66000D97152BAA3F805201972026912BA30BC06
:10C67000C3F809207047002419705C70C1680D046C
:10C68000C1F3074205F47F052A439A70C1F30721DD
:10C69000120CD9701A710289DC7152BAA3F8052004
:10C6A0001C72E2E77FB50E461546044600B112B98A
:10C6B0007846FBF74DFF0023CDE90033CDE9023387
:10C6C00032462B4621466846FEF73CFF04B070BD5B
:10C6D0002DE9FF41DDF82C800F4615461C46064625
:10C6E00020B11AB113B1B8F1000F02D17846FBF7AF
:10C6F0002FFF6B463A4631462846FEF723FF9DF84A
:10C700002820434621466846FEF71CFF04B0BDE8DA
:10C71000F0810000F0B50F4691B014461E46054664
:10C7200008B101B113B97846FBF712FF1CB978467E
:10C73000FBF70EFF01E0102CF9D8274B029307AA54
:10C74000042102A8FFF7AEFF03AB2946102207A879
:10C75000FEF7F8FE3946224607A813F052F810AB50
:10C760002344012203F8242C07ABA218194692B2E5
:10C7700003A8FEF7E7FE9DF82B30354603F07F0354
:10C7800005F8013B394622460BA813F03AF804F1AC
:10C79000100710AB1F4404F11102022392B207F8F4
:10C7A000243C07A92B4603A80192FEF7CBFE019A71
:10C7B0002B46113607AD186859682C4603C4083358
:10C7C000B3422546F7D1032107F8241C03A807A983
:10C7D000FEF7B8FE11B0F0BD736D6B3230B50C468C
:10C7E00089B0054600B111B97846FBF7B1FE0421C6
:10C7F0000DEB01000E4B019304AAFFF753FF04ABAE
:10C80000294618461022FEF79DFE0A4B18681B7930
:10C810008DF80C3004AB029002A918460522FEF7F1
:10C8200091FE06AB03CB2060616009B030BD00BF54
:10C83000736D6B336A08040030B50C4687B005464B
:10C8400000B111B97846FBF783FE0E4B009302AAA4
:10C8500068460421FFF726FF02AB2946184610223E
:10C86000FEF770FE084B0193042202AB18460DEB55
:10C870000201FEF767FE9DF8173003F03F032370B7
:10C8800007B030BD736D6B346964360130B5026832
:10C89000037CD17A87B000298DF80430836814BFF7
:10C8A0000821042109330B44CDE902324368049383
:10C8B0000446C3680593694601A802F08DF850EA62
:10C8C000010318D0237C012B0CD0206800F10C014F
:10C8D0001030FEF767F9054620B102F019F9284635
:10C8E00007B030BD2168009800F061FB009B093360
:10C8F00063610025F3E70425F1E7000008B500B106
:10C900004068044B1860FDF791FFBDE8084002F055
:10C9100035BD00BFA03C002008B5FDF7ABFFBDE86A
:10C92000084002F069BD10B5044610B97846FBF71F
:10C930000FFE236813B97846FBF70AFE23685B698C
:10C9400013B97846FBF704FE237C012B02D9784605
:10C95000FBF7FEFDE36813B97846FBF7F9FD2046C7
:10C96000BDE81040FFF792BFF0B50446C7B010B95C
:10C970007846FBF7EDFD636913B97846FBF7E8FDF0
:10C98000236813B97846FBF7E3FD23685B6913B9A5
:10C990007846FBF7DDFD606900F057FB1F4B1B6815
:10C9A0009B0705462ED51E4B1B68042B2ADD1D4B0D
:10C9B0001E6805AB411E00F11C07184611F8012F37
:10C9C0004FEA121C02F00F0216F80CC083F800C0E8
:10C9D000B25C5A708F4203F10203EFD1002380F85A
:10C9E0003A3003F1804303F588330F4AD3F8043516
:10C9F00001920E4A029000920D494FF49772052061
:10CA000000F044FDA168206800232A4600F090FA57
:10CA100047B0BDE8F04002F045B800BF482E002006
:10CA2000442E00204C2E0020BF08040062030400A6
:10CA3000B50804002DE9F0430F46D5B0164605466B
:10CA4000002800F0228100F004FBDFF86882421B1E
:10CA500029460BA812F0D5FED8F800309C0727D540
:10CA60008B4B1B68042B23DD8A4B802F3C46D3F86D
:10CA700000C028BF802413AB294604EB050E1846DE
:10CA8000714503F102037DD1002300F8143003F156
:10CA9000804303F58833804AD3F8043501927F4AF6
:10CAA000029000927E4940F25312052000F0EEFC05
:10CAB000002305AC00932A460BAB3946204600F014
:10CAC000E7F90546002840F0BB802378002B00F0F2
:10CAD000B780E268B2F1807F80F0B280E27A12B172
